{
  "contractName": "Logger",
  "abi": [
    {
      "constant": true,
      "inputs": [],
      "name": "owner",
      "outputs": [
        {
          "name": "",
          "type": "address"
        }
      ],
      "payable": false,
      "stateMutability": "view",
      "type": "function"
    },
    {
      "inputs": [],
      "payable": false,
      "stateMutability": "nonpayable",
      "type": "constructor"
    },
    {
      "anonymous": false,
      "inputs": [
        {
          "indexed": false,
          "name": "contractAddress",
          "type": "address"
        },
        {
          "indexed": false,
          "name": "_district",
          "type": "bytes2"
        },
        {
          "indexed": false,
          "name": "_document",
          "type": "uint256"
        },
        {
          "indexed": false,
          "name": "_landParcel",
          "type": "uint256"
        },
        {
          "indexed": false,
          "name": "_subaltern",
          "type": "uint256"
        },
        {
          "indexed": false,
          "name": "_ownerAddress",
          "type": "address"
        }
      ],
      "name": "NewDeploy",
      "type": "event"
    },
    {
      "anonymous": false,
      "inputs": [
        {
          "indexed": false,
          "name": "contractAddress",
          "type": "address"
        },
        {
          "indexed": false,
          "name": "_landParcel",
          "type": "uint256"
        },
        {
          "indexed": false,
          "name": "_subaltern",
          "type": "uint256"
        },
        {
          "indexed": false,
          "name": "_landBuyer",
          "type": "address"
        },
        {
          "indexed": false,
          "name": "exOwner",
          "type": "address"
        }
      ],
      "name": "Transfer",
      "type": "event"
    },
    {
      "constant": false,
      "inputs": [
        {
          "name": "_contractAddress",
          "type": "address"
        },
        {
          "name": "_district",
          "type": "bytes2"
        },
        {
          "name": "_document",
          "type": "uint256"
        },
        {
          "name": "_landParcel",
          "type": "uint256"
        },
        {
          "name": "_subaltern",
          "type": "uint256"
        },
        {
          "name": "_ownerAddress",
          "type": "address"
        }
      ],
      "name": "emitNewDeployEvent",
      "outputs": [],
      "payable": false,
      "stateMutability": "nonpayable",
      "type": "function"
    },
    {
      "constant": false,
      "inputs": [
        {
          "name": "_contractAddress",
          "type": "address"
        },
        {
          "name": "_landParcel",
          "type": "uint256"
        },
        {
          "name": "_subaltern",
          "type": "uint256"
        },
        {
          "name": "_landBuyer",
          "type": "address"
        },
        {
          "name": "exOwner",
          "type": "address"
        }
      ],
      "name": "emitTransfer",
      "outputs": [],
      "payable": false,
      "stateMutability": "nonpayable",
      "type": "function"
    }
  ],
  "bytecode": "0x608060405234801561001057600080fd5b50336000806101000a81548173ffffffffffffffffffffffffffffffffffffffff021916908373ffffffffffffffffffffffffffffffffffffffff16021790555061042a806100606000396000f300608060405260043610610057576000357c0100000000000000000000000000000000000000000000000000000000900463ffffffff1680636d9ea9961461005c5780638da5cb5b14610108578063ba3fdb1b1461015f575b600080fd5b34801561006857600080fd5b50610106600480360381019080803573ffffffffffffffffffffffffffffffffffffffff16906020019092919080357dffffffffffffffffffffffffffffffffffffffffffffffffffffffffffff19169060200190929190803590602001909291908035906020019092919080359060200190929190803573ffffffffffffffffffffffffffffffffffffffff1690602001909291905050506101f6565b005b34801561011457600080fd5b5061011d6102f7565b604051808273ffffffffffffffffffffffffffffffffffffffff1673ffffffffffffffffffffffffffffffffffffffff16815260200191505060405180910390f35b34801561016b57600080fd5b506101f4600480360381019080803573ffffffffffffffffffffffffffffffffffffffff1690602001909291908035906020019092919080359060200190929190803573ffffffffffffffffffffffffffffffffffffffff169060200190929190803573ffffffffffffffffffffffffffffffffffffffff16906020019092919050505061031c565b005b7f2493b4f929bd54429c5c9127ebf4fb5059a23a069c3dcc26c5a3dcfd71616b8e868686868686604051808773ffffffffffffffffffffffffffffffffffffffff1673ffffffffffffffffffffffffffffffffffffffff168152602001867dffffffffffffffffffffffffffffffffffffffffffffffffffffffffffff19167dffffffffffffffffffffffffffffffffffffffffffffffffffffffffffff191681526020018581526020018481526020018381526020018273ffffffffffffffffffffffffffffffffffffffff1673ffffffffffffffffffffffffffffffffffffffff168152602001965050505050505060405180910390a1505050505050565b6000809054906101000a900473ffffffffffffffffffffffffffffffffffffffff1681565b7f3f5e5e43d179c9c1edc9b67b7b7d9d76a2cffcc2b7c6035a788378596fdf56bc8585858585604051808673ffffffffffffffffffffffffffffffffffffffff1673ffffffffffffffffffffffffffffffffffffffff1681526020018581526020018481526020018373ffffffffffffffffffffffffffffffffffffffff1673ffffffffffffffffffffffffffffffffffffffff1681526020018273ffffffffffffffffffffffffffffffffffffffff1673ffffffffffffffffffffffffffffffffffffffff1681526020019550505050505060405180910390a150505050505600a165627a7a7230582030f683ce2f54155aa3d64306146eee6315ebae1f984de09521b2f961ce235ec40029",
  "source": "pragma solidity ^0.4.23;\n\n\ncontract Logger {\n\n    address public owner;   // address of who creates the contract\n\n    // Land addition event, use this to synchronize with the backend.\n    event NewDeploy(address contractAddress, bytes2 _district, uint _document, uint _landParcel, uint _subaltern, address _ownerAddress);\n\n    event Transfer(address contractAddress, uint _landParcel, uint _subaltern, address _landBuyer, address exOwner);\n\n    // When the contract is deployed by truffle the account that deploys the contract became the owner,\n    // in our case it will be the first account generated by ganache-cli (accounts[0]).\n    constructor () public{\n        owner = msg.sender;\n        //        emit NewDeploy(msg.sender);\n    }\n\n    // Modifier to check if the address of the calling (from field in the transaction obj) is the owner.\n    modifier isOwner{\n        require(msg.sender == owner, \"Not authorized\");\n        _;\n    }\n\n    function emitNewDeployEvent(address _contractAddress, bytes2 _district, uint _document, uint _landParcel, uint _subaltern, address _ownerAddress) public {\n        emit NewDeploy(_contractAddress, _district, _document, _landParcel, _subaltern, _ownerAddress);\n    }\n\n    function emitTransfer(address _contractAddress, uint _landParcel, uint _subaltern, address _landBuyer, address exOwner) public {\n        emit Transfer(_contractAddress, _landParcel, _subaltern, _landBuyer, exOwner);\n    }\n}",
  "sourcePath": "/home/luigi-cer1/Documenti/ThesisCode/ethereum/contracts/Logger.sol",
  "compiler": {
    "name": "solc",
    "version": "0.4.24+commit.e67f0147.Emscripten.clang"
  },
  "schemaVersion": "2.0.1",
  "updatedAt": "2018-10-20T06:42:15.958Z"
}