{
  "contractName": "Logger",
  "abi": [
    {
      "constant": true,
      "inputs": [],
      "name": "owner",
      "outputs": [
        {
          "name": "",
          "type": "address"
        }
      ],
      "payable": false,
      "stateMutability": "view",
      "type": "function"
    },
    {
      "inputs": [],
      "payable": false,
      "stateMutability": "nonpayable",
      "type": "constructor"
    },
    {
      "anonymous": false,
      "inputs": [
        {
          "indexed": false,
          "name": "contractAddress",
          "type": "address"
        },
        {
          "indexed": false,
          "name": "_district",
          "type": "bytes2"
        },
        {
          "indexed": false,
          "name": "_document",
          "type": "uint256"
        },
        {
          "indexed": false,
          "name": "_landParcel",
          "type": "uint256"
        },
        {
          "indexed": false,
          "name": "_subaltern",
          "type": "uint256"
        },
        {
          "indexed": false,
          "name": "_ownerAddress",
          "type": "address"
        }
      ],
      "name": "NewDeploy",
      "type": "event"
    },
    {
      "anonymous": false,
      "inputs": [
        {
          "indexed": false,
          "name": "contractAddress",
          "type": "address"
        },
        {
          "indexed": false,
          "name": "_landParcel",
          "type": "uint256"
        },
        {
          "indexed": false,
          "name": "_subaltern",
          "type": "uint256"
        },
        {
          "indexed": false,
          "name": "_landBuyer",
          "type": "address"
        }
      ],
      "name": "Transfer",
      "type": "event"
    },
    {
      "constant": false,
      "inputs": [
        {
          "name": "_contractAddress",
          "type": "address"
        },
        {
          "name": "_district",
          "type": "bytes2"
        },
        {
          "name": "_document",
          "type": "uint256"
        },
        {
          "name": "_landParcel",
          "type": "uint256"
        },
        {
          "name": "_subaltern",
          "type": "uint256"
        },
        {
          "name": "_ownerAddress",
          "type": "address"
        }
      ],
      "name": "emitNewDeployEvent",
      "outputs": [],
      "payable": false,
      "stateMutability": "nonpayable",
      "type": "function"
    },
    {
      "constant": false,
      "inputs": [
        {
          "name": "_contractAddress",
          "type": "address"
        },
        {
          "name": "_landParcel",
          "type": "uint256"
        },
        {
          "name": "_subaltern",
          "type": "uint256"
        },
        {
          "name": "_landBuyer",
          "type": "address"
        }
      ],
      "name": "emitTransfer",
      "outputs": [],
      "payable": false,
      "stateMutability": "nonpayable",
      "type": "function"
    }
  ],
  "bytecode": "0x608060405234801561001057600080fd5b50336000806101000a81548173ffffffffffffffffffffffffffffffffffffffff021916908373ffffffffffffffffffffffffffffffffffffffff1602179055506103d5806100606000396000f300608060405260043610610057576000357c0100000000000000000000000000000000000000000000000000000000900463ffffffff1680636d9ea9961461005c5780638da5cb5b14610108578063d66149521461015f575b600080fd5b34801561006857600080fd5b50610106600480360381019080803573ffffffffffffffffffffffffffffffffffffffff16906020019092919080357dffffffffffffffffffffffffffffffffffffffffffffffffffffffffffff19169060200190929190803590602001909291908035906020019092919080359060200190929190803573ffffffffffffffffffffffffffffffffffffffff1690602001909291905050506101d6565b005b34801561011457600080fd5b5061011d6102d7565b604051808273ffffffffffffffffffffffffffffffffffffffff1673ffffffffffffffffffffffffffffffffffffffff16815260200191505060405180910390f35b34801561016b57600080fd5b506101d4600480360381019080803573ffffffffffffffffffffffffffffffffffffffff1690602001909291908035906020019092919080359060200190929190803573ffffffffffffffffffffffffffffffffffffffff1690602001909291905050506102fc565b005b7f2493b4f929bd54429c5c9127ebf4fb5059a23a069c3dcc26c5a3dcfd71616b8e868686868686604051808773ffffffffffffffffffffffffffffffffffffffff1673ffffffffffffffffffffffffffffffffffffffff168152602001867dffffffffffffffffffffffffffffffffffffffffffffffffffffffffffff19167dffffffffffffffffffffffffffffffffffffffffffffffffffffffffffff191681526020018581526020018481526020018381526020018273ffffffffffffffffffffffffffffffffffffffff1673ffffffffffffffffffffffffffffffffffffffff168152602001965050505050505060405180910390a1505050505050565b6000809054906101000a900473ffffffffffffffffffffffffffffffffffffffff1681565b7f79238b49a94723676cdbed1713fdb22056502604cacc722a5f3fc2c9757b9f9184848484604051808573ffffffffffffffffffffffffffffffffffffffff1673ffffffffffffffffffffffffffffffffffffffff1681526020018481526020018381526020018273ffffffffffffffffffffffffffffffffffffffff1673ffffffffffffffffffffffffffffffffffffffff16815260200194505050505060405180910390a1505050505600a165627a7a723058208de3f6d9cbf40061f6752dfbf31cd49d374bf5cc4d9d862c000f0fa69bedea7c0029",
  "source": "pragma solidity ^0.4.23;\n\n\ncontract Logger {\n\n    address public owner;   // address of who creates the contract\n\n    // Land addition event, use this to synchronize with the backend.\n    event NewDeploy(address contractAddress, bytes2 _district, uint _document, uint _landParcel, uint _subaltern, address _ownerAddress);\n\n    event Transfer(address contractAddress, uint _landParcel, uint _subaltern, address _landBuyer);\n\n    // When the contract is deployed by truffle the account that deploys the contract became the owner,\n    // in our case it will be the first account generated by ganache-cli (accounts[0]).\n    constructor () public{\n        owner = msg.sender;\n        //        emit NewDeploy(msg.sender);\n    }\n\n    // Modifier to check if the address of the calling (from field in the transaction obj) is the owner.\n    modifier isOwner{\n        require(msg.sender == owner, \"Not authorized\");\n        _;\n    }\n\n    function emitNewDeployEvent(address _contractAddress, bytes2 _district, uint _document, uint _landParcel, uint _subaltern, address _ownerAddress) public {\n        emit NewDeploy(_contractAddress, _district, _document, _landParcel, _subaltern, _ownerAddress);\n    }\n\n    function emitTransfer(address _contractAddress, uint _landParcel, uint _subaltern, address _landBuyer) public {\n        emit Transfer(_contractAddress, _landParcel, _subaltern, _landBuyer);\n    }\n}",
  "sourcePath": "/home/debian-luigi/Documenti/ThesisTest/firstTest/ethereum/contracts/Logger.sol",
  "compiler": {
    "name": "solc",
    "version": "0.4.23+commit.124ca40d.Emscripten.clang"
  },
  "schemaVersion": "2.0.0",
  "updatedAt": "2018-07-25T09:05:08.139Z"
}