{
  "contractName": "Unity",
  "abi": [
    {
      "constant": true,
      "inputs": [
        {
          "name": "",
          "type": "address"
        },
        {
          "name": "",
          "type": "uint256"
        }
      ],
      "name": "__ownedLands",
      "outputs": [
        {
          "name": "landParcel",
          "type": "uint256"
        },
        {
          "name": "ownerAddress",
          "type": "address"
        },
        {
          "name": "landID",
          "type": "uint256"
        }
      ],
      "payable": false,
      "stateMutability": "view",
      "type": "function"
    },
    {
      "constant": true,
      "inputs": [
        {
          "name": "",
          "type": "uint256"
        },
        {
          "name": "",
          "type": "uint256"
        }
      ],
      "name": "__history",
      "outputs": [
        {
          "name": "",
          "type": "address"
        }
      ],
      "payable": false,
      "stateMutability": "view",
      "type": "function"
    },
    {
      "constant": true,
      "inputs": [],
      "name": "totalLandsCounter",
      "outputs": [
        {
          "name": "",
          "type": "uint256"
        }
      ],
      "payable": false,
      "stateMutability": "view",
      "type": "function"
    },
    {
      "constant": true,
      "inputs": [],
      "name": "owner",
      "outputs": [
        {
          "name": "",
          "type": "address"
        }
      ],
      "payable": false,
      "stateMutability": "view",
      "type": "function"
    },
    {
      "inputs": [],
      "payable": false,
      "stateMutability": "nonpayable",
      "type": "constructor"
    },
    {
      "anonymous": false,
      "inputs": [
        {
          "indexed": false,
          "name": "_owner",
          "type": "address"
        },
        {
          "indexed": false,
          "name": "_landID",
          "type": "uint256"
        }
      ],
      "name": "Add",
      "type": "event"
    },
    {
      "anonymous": false,
      "inputs": [
        {
          "indexed": true,
          "name": "_from",
          "type": "address"
        },
        {
          "indexed": true,
          "name": "_to",
          "type": "address"
        },
        {
          "indexed": false,
          "name": "_landID",
          "type": "uint256"
        }
      ],
      "name": "Transfer",
      "type": "event"
    },
    {
      "constant": false,
      "inputs": [
        {
          "name": "_landParcel",
          "type": "uint256"
        },
        {
          "name": "_ownerAddress",
          "type": "address"
        }
      ],
      "name": "addLand",
      "outputs": [
        {
          "name": "",
          "type": "address"
        }
      ],
      "payable": false,
      "stateMutability": "nonpayable",
      "type": "function"
    },
    {
      "constant": false,
      "inputs": [
        {
          "name": "_landBuyer",
          "type": "address"
        },
        {
          "name": "_landParcel",
          "type": "uint256"
        }
      ],
      "name": "transferLand",
      "outputs": [
        {
          "name": "",
          "type": "bool"
        }
      ],
      "payable": false,
      "stateMutability": "nonpayable",
      "type": "function"
    },
    {
      "constant": true,
      "inputs": [
        {
          "name": "_landHolder",
          "type": "address"
        },
        {
          "name": "_index",
          "type": "uint256"
        }
      ],
      "name": "getLand",
      "outputs": [
        {
          "name": "",
          "type": "uint256"
        },
        {
          "name": "",
          "type": "address"
        },
        {
          "name": "",
          "type": "uint256"
        }
      ],
      "payable": false,
      "stateMutability": "view",
      "type": "function"
    },
    {
      "constant": true,
      "inputs": [
        {
          "name": "_landHolder",
          "type": "address"
        }
      ],
      "name": "getNoOfLands",
      "outputs": [
        {
          "name": "",
          "type": "uint256"
        }
      ],
      "payable": false,
      "stateMutability": "view",
      "type": "function"
    },
    {
      "constant": true,
      "inputs": [
        {
          "name": "_landId",
          "type": "uint256"
        }
      ],
      "name": "getHistoryForLand",
      "outputs": [
        {
          "name": "",
          "type": "address[]"
        }
      ],
      "payable": false,
      "stateMutability": "view",
      "type": "function"
    }
  ],
  "bytecode": "0x608060405234801561001057600080fd5b50336000806101000a81548173ffffffffffffffffffffffffffffffffffffffff021916908373ffffffffffffffffffffffffffffffffffffffff1602179055506000600381905550611038806100686000396000f300608060405260043610610099576000357c0100000000000000000000000000000000000000000000000000000000900463ffffffff16806305efe9c71461009e5780632c3e36601461013957806365742555146101b05780637bbac7621461024b57806382f557ae146102d85780638da5cb5b14610303578063b3f40d6a1461035a578063db9cf06b146103bf578063db9d055114610441575b600080fd5b3480156100aa57600080fd5b506100e9600480360381019080803573ffffffffffffffffffffffffffffffffffffffff16906020019092919080359060200190929190505050610498565b604051808481526020018373ffffffffffffffffffffffffffffffffffffffff1673ffffffffffffffffffffffffffffffffffffffff168152602001828152602001935050505060405180910390f35b34801561014557600080fd5b5061016e60048036038101908080359060200190929190803590602001909291905050506104fe565b604051808273ffffffffffffffffffffffffffffffffffffffff1673ffffffffffffffffffffffffffffffffffffffff16815260200191505060405180910390f35b3480156101bc57600080fd5b506101fb600480360381019080803573ffffffffffffffffffffffffffffffffffffffff1690602001909291908035906020019092919050505061054b565b604051808481526020018373ffffffffffffffffffffffffffffffffffffffff1673ffffffffffffffffffffffffffffffffffffffff168152602001828152602001935050505060405180910390f35b34801561025757600080fd5b5061029660048036038101908080359060200190929190803573ffffffffffffffffffffffffffffffffffffffff169060200190929190505050610697565b604051808273ffffffffffffffffffffffffffffffffffffffff1673ffffffffffffffffffffffffffffffffffffffff16815260200191505060405180910390f35b3480156102e457600080fd5b506102ed610ab3565b6040518082815260200191505060405180910390f35b34801561030f57600080fd5b50610318610ab9565b604051808273ffffffffffffffffffffffffffffffffffffffff1673ffffffffffffffffffffffffffffffffffffffff16815260200191505060405180910390f35b34801561036657600080fd5b506103a5600480360381019080803573ffffffffffffffffffffffffffffffffffffffff16906020019092919080359060200190929190505050610ade565b604051808215151515815260200191505060405180910390f35b3480156103cb57600080fd5b506103ea60048036038101908080359060200190929190505050610ee7565b6040518080602001828103825283818151815260200191508051906020019060200280838360005b8381101561042d578082015181840152602081019050610412565b505050509050019250505060405180910390f35b34801561044d57600080fd5b50610482600480360381019080803573ffffffffffffffffffffffffffffffffffffffff169060200190929190505050610f88565b6040518082815260200191505060405180910390f35b6002602052816000526040600020818154811015156104b357fe5b9060005260206000209060030201600091509150508060000154908060010160009054906101000a900473ffffffffffffffffffffffffffffffffffffffff16908060020154905083565b60016020528160005260406000208181548110151561051957fe5b906000526020600020016000915091509054906101000a900473ffffffffffffffffffffffffffffffffffffffff1681565b6000806000600260008673ffffffffffffffffffffffffffffffffffffffff1673ffffffffffffffffffffffffffffffffffffffff1681526020019081526020016000208481548110151561059c57fe5b906000526020600020906003020160000154600260008773ffffffffffffffffffffffffffffffffffffffff1673ffffffffffffffffffffffffffffffffffffffff168152602001908152602001600020858154811015156105fa57fe5b906000526020600020906003020160010160009054906101000a900473ffffffffffffffffffffffffffffffffffffffff16600260008873ffffffffffffffffffffffffffffffffffffffff1673ffffffffffffffffffffffffffffffffffffffff1681526020019081526020016000208681548110151561067857fe5b9060005260206000209060030201600201549250925092509250925092565b60006106a1610fd4565b6000809054906101000a900473ffffffffffffffffffffffffffffffffffffffff1673ffffffffffffffffffffffffffffffffffffffff163373ffffffffffffffffffffffffffffffffffffffff16141515610765576040517f08c379a000000000000000000000000000000000000000000000000000000000815260040180806020018281038252600e8152602001807f4e6f7420617574686f72697a656400000000000000000000000000000000000081525060200191505060405180910390fd5b838360008060009150600090505b600260008473ffffffffffffffffffffffffffffffffffffffff1673ffffffffffffffffffffffffffffffffffffffff168152602001908152602001600020805490508110156108385783600260008573ffffffffffffffffffffffffffffffffffffffff1673ffffffffffffffffffffffffffffffffffffffff1681526020019081526020016000208281548110151561080a57fe5b906000526020600020906003020160000154141561082b5760019150610838565b8080600101915050610773565b600015158215151415156108b4576040517f08c379a000000000000000000000000000000000000000000000000000000000815260040180806020018281038252600e8152602001807f4475706c6963617465206c616e6400000000000000000000000000000000000081525060200191505060405180910390fd5b6001600354016003819055506060604051908101604052808981526020018873ffffffffffffffffffffffffffffffffffffffff1681526020016003548152509450600260008873ffffffffffffffffffffffffffffffffffffffff1673ffffffffffffffffffffffffffffffffffffffff16815260200190815260200160002085908060018154018082558091505090600182039060005260206000209060030201600090919290919091506000820151816000015560208201518160010160006101000a81548173ffffffffffffffffffffffffffffffffffffffff021916908373ffffffffffffffffffffffffffffffffffffffff160217905550604082015181600201555050506001600060035481526020019081526020016000208790806001815401808255809150509060018203906000526020600020016000909192909190916101000a81548173ffffffffffffffffffffffffffffffffffffffff021916908373ffffffffffffffffffffffffffffffffffffffff160217905550507f2728c9d3205d667bbc0eefdfeda366261b4d021949630c047f3e5834b30611ab87600354604051808373ffffffffffffffffffffffffffffffffffffffff1673ffffffffffffffffffffffffffffffffffffffff1681526020018281526020019250505060405180910390a1339550505050505092915050565b60035481565b6000809054906101000a900473ffffffffffffffffffffffffffffffffffffffff1681565b600080610ae9610fd4565b600091505b600260003373ffffffffffffffffffffffffffffffffffffffff1673ffffffffffffffffffffffffffffffffffffffff16815260200190815260200160002080549050821015610eda5783600260003373ffffffffffffffffffffffffffffffffffffffff1673ffffffffffffffffffffffffffffffffffffffff16815260200190815260200160002083815481101515610b8557fe5b9060005260206000209060030201600001541415610ecd576060604051908101604052808581526020018673ffffffffffffffffffffffffffffffffffffffff168152602001600260003373ffffffffffffffffffffffffffffffffffffffff1673ffffffffffffffffffffffffffffffffffffffff16815260200190815260200160002084815481101515610c1757fe5b9060005260206000209060030201600201548152509050600260008673ffffffffffffffffffffffffffffffffffffffff1673ffffffffffffffffffffffffffffffffffffffff16815260200190815260200160002081908060018154018082558091505090600182039060005260206000209060030201600090919290919091506000820151816000015560208201518160010160006101000a81548173ffffffffffffffffffffffffffffffffffffffff021916908373ffffffffffffffffffffffffffffffffffffffff1602179055506040820151816002015550505060016000600260003373ffffffffffffffffffffffffffffffffffffffff1673ffffffffffffffffffffffffffffffffffffffff16815260200190815260200160002084815481101515610d4757fe5b90600052602060002090600302016002015481526020019081526020016000208590806001815401808255809150509060018203906000526020600020016000909192909190916101000a81548173ffffffffffffffffffffffffffffffffffffffff021916908373ffffffffffffffffffffffffffffffffffffffff16021790555050600260003373ffffffffffffffffffffffffffffffffffffffff1673ffffffffffffffffffffffffffffffffffffffff16815260200190815260200160002082815481101515610e1757fe5b90600052602060002090600302016000808201600090556001820160006101000a81549073ffffffffffffffffffffffffffffffffffffffff0219169055600282016000905550508473ffffffffffffffffffffffffffffffffffffffff163373ffffffffffffffffffffffffffffffffffffffff167fddf252ad1be2c89b69c2b068fc378daa952ba7f163c4a11628f55a4df523b3ef866040518082815260200191505060405180910390a360019250610edf565b8180600101925050610aee565b600092505b505092915050565b606060016000838152602001908152602001600020805480602002602001604051908101604052809291908181526020018280548015610f7c57602002820191906000526020600020905b8160009054906101000a900473ffffffffffffffffffffffffffffffffffffffff1673ffffffffffffffffffffffffffffffffffffffff1681526020019060010190808311610f32575b50505050509050919050565b6000600260008373ffffffffffffffffffffffffffffffffffffffff1673ffffffffffffffffffffffffffffffffffffffff168152602001908152602001600020805490509050919050565b60606040519081016040528060008152602001600073ffffffffffffffffffffffffffffffffffffffff1681526020016000815250905600a165627a7a7230582011cd5cbea4f0f22f3a4a2b9ef65f0a5c24cc3b02d5c5ba42057e60659adb92440029",
  "source": "pragma solidity ^0.4.23;\n\n\ncontract Unity {\n    struct Land {\n        uint landParcel;\n        address ownerAddress;\n        //        string location;\n        //        uint cost;\n        uint landID;\n    }\n\n    address public owner;   // government who creates the contract\n\n    // one landId can have multiple owners.\n    mapping(uint => address[]) public __history;\n\n    //one account can hold many lands (many landTokens, each token one land)\n    mapping(address => Land[]) public __ownedLands;\n    uint public totalLandsCounter; //total no of lands via this contract at any time\n\n    //define who is owner\n    constructor () public{\n        owner = msg.sender;\n        totalLandsCounter = 0;\n    }\n\n    //land addition event\n    event Add(address _owner, uint _landID);\n\n    //land transfer event\n    event Transfer(address indexed _from, address indexed _to, uint _landID);\n\n    modifier isOwner{\n        require(msg.sender == owner, \"Not authorized\");\n        _;\n    }\n\n    // Modifier used to check if current land is already present in the array associated to the user.\n    modifier isUnique (uint _landParcel, address _ownerAddress){\n        bool duplicate = false;\n        for (uint i = 0; i < (__ownedLands[_ownerAddress].length); i++) {\n            if (__ownedLands[_ownerAddress][i].landParcel == _landParcel) {\n                duplicate = true;\n                break;\n            }\n        }\n        require(duplicate == false, \"Duplicate land\");\n        _;\n    }\n\n    //1. FIRST OPERATION\n    //owner shall add lands via this function\n    //    function addLand(string _location, uint _cost) public isOwner {\n    function addLand(uint _landParcel, address _ownerAddress) public isOwner isUnique(_landParcel, _ownerAddress) returns (address) {\n\n        totalLandsCounter = totalLandsCounter + 1;\n        Land memory myLand = Land({\n            landParcel : _landParcel,\n            ownerAddress : _ownerAddress,\n            //                location: _location,\n            //                cost: _cost,\n            landID : totalLandsCounter\n            });\n        __ownedLands[_ownerAddress].push(myLand);\n\n        // Add history entry for this new land.\n        __history[totalLandsCounter].push(_ownerAddress);\n\n        emit Add(_ownerAddress, totalLandsCounter);\n        return msg.sender;\n    }\n\n\n    //2. SECOND OPERATION\n    //caller (owner/anyone) to transfer land to buyer provided caller is owner of the land\n    function transferLand(address _landBuyer, uint _landParcel) public returns (bool) {\n        //find out the particular land ID in owner's collection\n        for (uint i = 0; i < (__ownedLands[msg.sender].length); i++) {\n            //if given land ID is indeed in owner's collection\n            if (__ownedLands[msg.sender][i].landParcel == _landParcel) {\n                //copy land in new owner's collection\n                Land memory myLand = Land(\n                    {\n                    landParcel : _landParcel,\n                    ownerAddress : _landBuyer,\n                    landID : __ownedLands[msg.sender][i].landID\n                    //                        location: __ownedLands[msg.sender][i].location,\n                    //                        cost: __ownedLands[msg.sender][i].cost,\n                    });\n                __ownedLands[_landBuyer].push(myLand);\n\n                // Insert movement in the history mapping.\n                __history[__ownedLands[msg.sender][i].landID].push(_landBuyer);\n\n\n                //remove land from current ownerAddress\n                delete __ownedLands[msg.sender][i];\n\n                //inform the world\n                emit Transfer(msg.sender, _landBuyer, _landParcel);\n\n                return true;\n            }\n        }\n\n        //if we still did not return, return false\n        return false;\n    }\n\n\n    //3. THIRD OPERATION\n    //get land details of an account\n    function getLand(address _landHolder, uint _index) public view returns (uint, address, uint) {\n        return (\n        //        __ownedLands[_landHolder][_index].location,\n        //        __ownedLands[_landHolder][_index].cost,\n        __ownedLands[_landHolder][_index].landParcel,\n        __ownedLands[_landHolder][_index].ownerAddress,\n        __ownedLands[_landHolder][_index].landID);\n\n    }\n\n    //4. GET TOTAL NO OF LANDS OWNED BY AN ACCOUNT AS NO WAY TO RETURN STRUCT ARRAYS\n    function getNoOfLands(address _landHolder) public view returns (uint) {\n        return __ownedLands[_landHolder].length;\n    }\n\n\n    //    function toString() public view {\n    //        for (uint i = 0; i < totalLandsCounter; i++) {\n    //            console.log(__ownedLands[i]);\n    //        }\n    //    }\n\n    // Return all the movements for a specific land.\n    function getHistoryForLand(uint _landId) public view returns (address[]) {\n        return __history[_landId];\n    }\n\n\n}",
  "sourcePath": "/home/debian-luigi/Documenti/ThesisTest/firstTest/ethereum/contracts/Unity.sol",
  "compiler": {
    "name": "solc",
    "version": "0.4.23+commit.124ca40d.Emscripten.clang"
  },
  "schemaVersion": "2.0.0",
  "updatedAt": "2018-07-12T10:24:16.929Z"
}