{
  "contractName": "Unity",
  "abi": [
    {
      "anonymous": false,
      "inputs": [
        {
          "indexed": false,
          "name": "newOwner",
          "type": "address"
        }
      ],
      "name": "UpdatedOwner",
      "type": "event"
    },
    {
      "constant": false,
      "inputs": [
        {
          "name": "price",
          "type": "uint256"
        },
        {
          "name": "_id",
          "type": "bytes32"
        }
      ],
      "name": "constrcutor",
      "outputs": [],
      "payable": false,
      "stateMutability": "nonpayable",
      "type": "function"
    },
    {
      "constant": false,
      "inputs": [
        {
          "name": "price",
          "type": "uint256"
        },
        {
          "name": "_id",
          "type": "bytes32"
        }
      ],
      "name": "setUnity",
      "outputs": [],
      "payable": false,
      "stateMutability": "nonpayable",
      "type": "function"
    },
    {
      "constant": true,
      "inputs": [],
      "name": "getOwner",
      "outputs": [
        {
          "name": "",
          "type": "address"
        }
      ],
      "payable": false,
      "stateMutability": "view",
      "type": "function"
    },
    {
      "constant": true,
      "inputs": [],
      "name": "getId",
      "outputs": [
        {
          "name": "",
          "type": "bytes32"
        }
      ],
      "payable": false,
      "stateMutability": "view",
      "type": "function"
    },
    {
      "constant": false,
      "inputs": [
        {
          "name": "_newOwner",
          "type": "address"
        }
      ],
      "name": "updateOwner",
      "outputs": [
        {
          "name": "",
          "type": "address"
        }
      ],
      "payable": false,
      "stateMutability": "nonpayable",
      "type": "function"
    },
    {
      "constant": false,
      "inputs": [
        {
          "name": "currentOwner",
          "type": "address"
        }
      ],
      "name": "getPreviousOwner",
      "outputs": [
        {
          "name": "",
          "type": "address"
        }
      ],
      "payable": false,
      "stateMutability": "nonpayable",
      "type": "function"
    }
  ],
  "bytecode": "0x608060405234801561001057600080fd5b506104e0806100206000396000f300608060405260043610610078576000357c0100000000000000000000000000000000000000000000000000000000900463ffffffff16806344945f491461007d5780635d1ca63114610100578063880cdc3114610133578063893d20e8146101b6578063928eead11461020d578063b4bb1b7614610248575b600080fd5b34801561008957600080fd5b506100be600480360381019080803573ffffffffffffffffffffffffffffffffffffffff169060200190929190505050610283565b604051808273ffffffffffffffffffffffffffffffffffffffff1673ffffffffffffffffffffffffffffffffffffffff16815260200191505060405180910390f35b34801561010c57600080fd5b506101156102ec565b60405180826000191660001916815260200191505060405180910390f35b34801561013f57600080fd5b50610174600480360381019080803573ffffffffffffffffffffffffffffffffffffffff1690602001909291905050506102f6565b604051808273ffffffffffffffffffffffffffffffffffffffff1673ffffffffffffffffffffffffffffffffffffffff16815260200191505060405180910390f35b3480156101c257600080fd5b506101cb6103df565b604051808273ffffffffffffffffffffffffffffffffffffffff1673ffffffffffffffffffffffffffffffffffffffff16815260200191505060405180910390f35b34801561021957600080fd5b50610246600480360381019080803590602001909291908035600019169060200190929190505050610408565b005b34801561025457600080fd5b5061028160048036038101908080359060200190929190803560001916906020019092919050505061045e565b005b6000600360008373ffffffffffffffffffffffffffffffffffffffff1673ffffffffffffffffffffffffffffffffffffffff16815260200190815260200160002060009054906101000a900473ffffffffffffffffffffffffffffffffffffffff169050919050565b6000600254905090565b6000816000806101000a81548173ffffffffffffffffffffffffffffffffffffffff021916908373ffffffffffffffffffffffffffffffffffffffff1602179055506000809054906101000a900473ffffffffffffffffffffffffffffffffffffffff16600360008473ffffffffffffffffffffffffffffffffffffffff1673ffffffffffffffffffffffffffffffffffffffff16815260200190815260200160002060006101000a81548173ffffffffffffffffffffffffffffffffffffffff021916908373ffffffffffffffffffffffffffffffffffffffff160217905550819050919050565b60008060009054906101000a900473ffffffffffffffffffffffffffffffffffffffff16905090565b336000806101000a81548173ffffffffffffffffffffffffffffffffffffffff021916908373ffffffffffffffffffffffffffffffffffffffff1602179055508160018190555080600281600019169055505050565b336000806101000a81548173ffffffffffffffffffffffffffffffffffffffff021916908373ffffffffffffffffffffffffffffffffffffffff16021790555081600181905550806002816000191690555050505600a165627a7a72305820a909b07a03e7acdd1acd35c3cc739b8d1ea91ab6a536518182b93492692487c00029",
  "source": "pragma solidity ^0.4.17;\n\ncontract Unity {\n    address owner;\n    uint256 value; \n    bytes32 ID; \n    mapping (address => address) history; \n    \n    function constrcutor(uint256 price, bytes32 _id) public{\n        owner = msg.sender;\n        value = price;\n        ID = _id;\n    }\n\n    function setUnity(uint256 price, bytes32 _id) public {\n        owner = msg.sender;\n        value = price;\n        ID = _id;\n    }\n\n    function getOwner() public view returns(address) {\n        return owner;\n    }\n\n    function getId() public view returns(bytes32) {\n        return ID;\n    }\n    \n    function updateOwner(address _newOwner) public returns(address) {\n        owner = _newOwner; \n        history[_newOwner] = owner; \n        return _newOwner; \n        emit UpdatedOwner(_newOwner);\n    }\n    \n    function getPreviousOwner(address currentOwner) public returns(address) {\n        return history[currentOwner];\n    }\n    \n    event UpdatedOwner(address newOwner);\n}",
  "sourcePath": "/home/debian-luigi/Documenti/ThesisTest/firstTest/contracts/Unity.sol",
  "compiler": {
    "name": "solc",
    "version": "0.4.23+commit.124ca40d.Emscripten.clang"
  },
  "schemaVersion": "2.0.0",
  "updatedAt": "2018-04-30T09:43:34.052Z"
}