{
  "contractName": "Unity",
  "abi": [
    {
      "constant": true,
      "inputs": [
        {
          "name": "",
          "type": "address"
        },
        {
          "name": "",
          "type": "uint256"
        }
      ],
      "name": "__ownedLands",
      "outputs": [
        {
          "name": "landParcel",
          "type": "uint256"
        },
        {
          "name": "ownerAddress",
          "type": "address"
        },
        {
          "name": "landID",
          "type": "uint256"
        }
      ],
      "payable": false,
      "stateMutability": "view",
      "type": "function"
    },
    {
      "constant": true,
      "inputs": [],
      "name": "totalLandsCounter",
      "outputs": [
        {
          "name": "",
          "type": "uint256"
        }
      ],
      "payable": false,
      "stateMutability": "view",
      "type": "function"
    },
    {
      "constant": true,
      "inputs": [],
      "name": "owner",
      "outputs": [
        {
          "name": "",
          "type": "address"
        }
      ],
      "payable": false,
      "stateMutability": "view",
      "type": "function"
    },
    {
      "inputs": [],
      "payable": false,
      "stateMutability": "nonpayable",
      "type": "constructor"
    },
    {
      "anonymous": false,
      "inputs": [
        {
          "indexed": false,
          "name": "_owner",
          "type": "address"
        },
        {
          "indexed": false,
          "name": "_landID",
          "type": "uint256"
        }
      ],
      "name": "Add",
      "type": "event"
    },
    {
      "anonymous": false,
      "inputs": [
        {
          "indexed": true,
          "name": "_from",
          "type": "address"
        },
        {
          "indexed": true,
          "name": "_to",
          "type": "address"
        },
        {
          "indexed": false,
          "name": "_landID",
          "type": "uint256"
        }
      ],
      "name": "Transfer",
      "type": "event"
    },
    {
      "constant": false,
      "inputs": [
        {
          "name": "_landParcel",
          "type": "uint256"
        }
      ],
      "name": "addLand",
      "outputs": [
        {
          "name": "",
          "type": "uint256"
        }
      ],
      "payable": false,
      "stateMutability": "nonpayable",
      "type": "function"
    },
    {
      "constant": false,
      "inputs": [
        {
          "name": "_landBuyer",
          "type": "address"
        },
        {
          "name": "_landID",
          "type": "uint256"
        }
      ],
      "name": "transferLand",
      "outputs": [
        {
          "name": "",
          "type": "bool"
        }
      ],
      "payable": false,
      "stateMutability": "nonpayable",
      "type": "function"
    },
    {
      "constant": true,
      "inputs": [
        {
          "name": "_landHolder",
          "type": "address"
        },
        {
          "name": "_index",
          "type": "uint256"
        }
      ],
      "name": "getLand",
      "outputs": [
        {
          "name": "",
          "type": "uint256"
        },
        {
          "name": "",
          "type": "address"
        },
        {
          "name": "",
          "type": "uint256"
        }
      ],
      "payable": false,
      "stateMutability": "view",
      "type": "function"
    },
    {
      "constant": true,
      "inputs": [
        {
          "name": "_landHolder",
          "type": "address"
        }
      ],
      "name": "getNoOfLands",
      "outputs": [
        {
          "name": "",
          "type": "uint256"
        }
      ],
      "payable": false,
      "stateMutability": "view",
      "type": "function"
    }
  ],
  "bytecode": "0x608060405234801561001057600080fd5b50336000806101000a81548173ffffffffffffffffffffffffffffffffffffffff021916908373ffffffffffffffffffffffffffffffffffffffff1602179055506000600181905550610a8b806100686000396000f300608060405260043610610083576000357c0100000000000000000000000000000000000000000000000000000000900463ffffffff16806305efe9c7146100885780631498291314610123578063657425551461016457806382f557ae146101ff5780638da5cb5b1461022a578063b3f40d6a14610281578063db9d0551146102e6575b600080fd5b34801561009457600080fd5b506100d3600480360381019080803573ffffffffffffffffffffffffffffffffffffffff1690602001909291908035906020019092919050505061033d565b604051808481526020018373ffffffffffffffffffffffffffffffffffffffff1673ffffffffffffffffffffffffffffffffffffffff168152602001828152602001935050505060405180910390f35b34801561012f57600080fd5b5061014e600480360381019080803590602001909291905050506103a3565b6040518082815260200191505060405180910390f35b34801561017057600080fd5b506101af600480360381019080803573ffffffffffffffffffffffffffffffffffffffff1690602001909291908035906020019092919050505061052f565b604051808481526020018373ffffffffffffffffffffffffffffffffffffffff1673ffffffffffffffffffffffffffffffffffffffff168152602001828152602001935050505060405180910390f35b34801561020b57600080fd5b5061021461067b565b6040518082815260200191505060405180910390f35b34801561023657600080fd5b5061023f610681565b604051808273ffffffffffffffffffffffffffffffffffffffff1673ffffffffffffffffffffffffffffffffffffffff16815260200191505060405180910390f35b34801561028d57600080fd5b506102cc600480360381019080803573ffffffffffffffffffffffffffffffffffffffff169060200190929190803590602001909291905050506106a6565b604051808215151515815260200191505060405180910390f35b3480156102f257600080fd5b50610327600480360381019080803573ffffffffffffffffffffffffffffffffffffffff1690602001909291905050506109db565b6040518082815260200191505060405180910390f35b60026020528160005260406000208181548110151561035857fe5b9060005260206000209060030201600091509150508060000154908060010160009054906101000a900473ffffffffffffffffffffffffffffffffffffffff16908060020154905083565b60006103ad610a27565b60018054016001819055506060604051908101604052808481526020013373ffffffffffffffffffffffffffffffffffffffff1681526020016001548152509050600260003373ffffffffffffffffffffffffffffffffffffffff1673ffffffffffffffffffffffffffffffffffffffff16815260200190815260200160002081908060018154018082558091505090600182039060005260206000209060030201600090919290919091506000820151816000015560208201518160010160006101000a81548173ffffffffffffffffffffffffffffffffffffffff021916908373ffffffffffffffffffffffffffffffffffffffff160217905550604082015181600201555050507f2728c9d3205d667bbc0eefdfeda366261b4d021949630c047f3e5834b30611ab33600154604051808373ffffffffffffffffffffffffffffffffffffffff1673ffffffffffffffffffffffffffffffffffffffff1681526020018281526020019250505060405180910390a1600154915050919050565b6000806000600260008673ffffffffffffffffffffffffffffffffffffffff1673ffffffffffffffffffffffffffffffffffffffff1681526020019081526020016000208481548110151561058057fe5b906000526020600020906003020160000154600260008773ffffffffffffffffffffffffffffffffffffffff1673ffffffffffffffffffffffffffffffffffffffff168152602001908152602001600020858154811015156105de57fe5b906000526020600020906003020160010160009054906101000a900473ffffffffffffffffffffffffffffffffffffffff16600260008873ffffffffffffffffffffffffffffffffffffffff1673ffffffffffffffffffffffffffffffffffffffff1681526020019081526020016000208681548110151561065c57fe5b9060005260206000209060030201600201549250925092509250925092565b60015481565b6000809054906101000a900473ffffffffffffffffffffffffffffffffffffffff1681565b6000806106b1610a27565b600091505b600260003373ffffffffffffffffffffffffffffffffffffffff1673ffffffffffffffffffffffffffffffffffffffff168152602001908152602001600020805490508210156109ce5783600260003373ffffffffffffffffffffffffffffffffffffffff1673ffffffffffffffffffffffffffffffffffffffff1681526020019081526020016000208381548110151561074d57fe5b90600052602060002090600302016002015414156109c157606060405190810160405280600260003373ffffffffffffffffffffffffffffffffffffffff1673ffffffffffffffffffffffffffffffffffffffff168152602001908152602001600020848154811015156107bd57fe5b90600052602060002090600302016000015481526020018673ffffffffffffffffffffffffffffffffffffffff168152602001858152509050600260008673ffffffffffffffffffffffffffffffffffffffff1673ffffffffffffffffffffffffffffffffffffffff16815260200190815260200160002081908060018154018082558091505090600182039060005260206000209060030201600090919290919091506000820151816000015560208201518160010160006101000a81548173ffffffffffffffffffffffffffffffffffffffff021916908373ffffffffffffffffffffffffffffffffffffffff16021790555060408201518160020155505050600260003373ffffffffffffffffffffffffffffffffffffffff1673ffffffffffffffffffffffffffffffffffffffff1681526020019081526020016000208281548110151561090b57fe5b90600052602060002090600302016000808201600090556001820160006101000a81549073ffffffffffffffffffffffffffffffffffffffff0219169055600282016000905550508473ffffffffffffffffffffffffffffffffffffffff163373ffffffffffffffffffffffffffffffffffffffff167fddf252ad1be2c89b69c2b068fc378daa952ba7f163c4a11628f55a4df523b3ef866040518082815260200191505060405180910390a3600192506109d3565b81806001019250506106b6565b600092505b505092915050565b6000600260008373ffffffffffffffffffffffffffffffffffffffff1673ffffffffffffffffffffffffffffffffffffffff168152602001908152602001600020805490509050919050565b60606040519081016040528060008152602001600073ffffffffffffffffffffffffffffffffffffffff1681526020016000815250905600a165627a7a72305820c4378f840c9a4737f8363248b452cb41fb9c2c094a385846a2147c9ca18a24080029",
  "source": "pragma solidity ^0.4.17;\n\n\ncontract Unity {\n    struct Land {\n        uint landParcel;\n        address ownerAddress;\n        //        string location;\n        //        uint cost;\n        uint landID;\n    }\n\n    address public owner;   // government who creates the contract\n\n    uint public totalLandsCounter; //total no of lands via this contract at any time\n\n    //define who is owner\n    constructor () public{\n        owner = msg.sender;\n        totalLandsCounter = 0;\n    }\n\n    //land addition event\n    event Add(address _owner, uint _landID);\n\n    //land transfer event\n    event Transfer(address indexed _from, address indexed _to, uint _landID);\n\n    modifier isOwner{\n        require(msg.sender == owner);\n        _;\n    }\n\n    //one account can hold many lands (many landTokens, each token one land)\n    mapping(address => Land[]) public __ownedLands;\n\n\n    //1. FIRST OPERATION\n    //owner shall add lands via this function\n    //    function addLand(string _location, uint _cost) public isOwner {\n    function addLand(uint _landParcel) public returns (uint) {\n\n        totalLandsCounter = totalLandsCounter + 1;\n        Land memory myLand = Land({\n            landParcel : _landParcel,\n            ownerAddress : msg.sender,\n            //                location: _location,\n            //                cost: _cost,\n            landID : totalLandsCounter\n            });\n        __ownedLands[msg.sender].push(myLand);\n        emit Add(msg.sender, totalLandsCounter);\n        return totalLandsCounter;\n    }\n\n\n    //2. SECOND OPERATION\n    //caller (owner/anyone) to transfer land to buyer provided caller is owner of the land\n    function transferLand(address _landBuyer, uint _landID) public returns (bool) {\n        //find out the particular land ID in owner's collection\n        for (uint i = 0; i < (__ownedLands[msg.sender].length); i++) {\n            //if given land ID is indeed in owner's collection\n            if (__ownedLands[msg.sender][i].landID == _landID) {\n                //copy land in new owner's collection\n                Land memory myLand = Land(\n                    {\n                    landParcel : __ownedLands[msg.sender][i].landParcel,\n                    ownerAddress : _landBuyer,\n                    landID : _landID\n                    //                        location: __ownedLands[msg.sender][i].location,\n                    //                        cost: __ownedLands[msg.sender][i].cost,\n                    });\n                __ownedLands[_landBuyer].push(myLand);\n\n                //remove land from current ownerAddress\n                delete __ownedLands[msg.sender][i];\n\n\n                //inform the world\n                emit Transfer(msg.sender, _landBuyer, _landID);\n\n                return true;\n            }\n        }\n\n        //if we still did not return, return false\n        return false;\n    }\n\n\n    //3. THIRD OPERATION\n    //get land details of an account\n    function getLand(address _landHolder, uint _index) public view returns (uint, address, uint) {\n        return (\n        //        __ownedLands[_landHolder][_index].location,\n        //        __ownedLands[_landHolder][_index].cost,\n        __ownedLands[_landHolder][_index].landParcel,\n        __ownedLands[_landHolder][_index].ownerAddress,\n        __ownedLands[_landHolder][_index].landID);\n\n    }\n\n    //4. GET TOTAL NO OF LANDS OWNED BY AN ACCOUNT AS NO WAY TO RETURN STRUCT ARRAYS\n    function getNoOfLands(address _landHolder) public view returns (uint) {\n        return __ownedLands[_landHolder].length;\n    }\n\n\n    //    function toString() public view {\n    //        for (uint i = 0; i < totalLandsCounter; i++) {\n    //            console.log(__ownedLands[i]);\n    //        }\n    //    }\n\n\n}",
  "sourcePath": "/home/debian-luigi/Documenti/ThesisTest/firstTest/ethereum/contracts/Unity.sol",
  "compiler": {
    "name": "solc",
    "version": "0.4.23+commit.124ca40d.Emscripten.clang"
  },
  "schemaVersion": "2.0.0",
  "updatedAt": "2018-07-09T09:34:17.790Z"
}