{
  "contractName": "Unity",
  "abi": [
    {
      "constant": true,
      "inputs": [
        {
          "name": "",
          "type": "uint256"
        }
      ],
      "name": "__history",
      "outputs": [
        {
          "name": "ownerAddress",
          "type": "address"
        },
        {
          "name": "timestamp",
          "type": "uint256"
        }
      ],
      "payable": false,
      "stateMutability": "view",
      "type": "function"
    },
    {
      "constant": true,
      "inputs": [],
      "name": "owner",
      "outputs": [
        {
          "name": "",
          "type": "address"
        }
      ],
      "payable": false,
      "stateMutability": "view",
      "type": "function"
    },
    {
      "constant": true,
      "inputs": [],
      "name": "_land",
      "outputs": [
        {
          "name": "district",
          "type": "bytes2"
        },
        {
          "name": "document",
          "type": "uint256"
        },
        {
          "name": "landParcel",
          "type": "uint256"
        },
        {
          "name": "subaltern",
          "type": "uint256"
        },
        {
          "name": "ownerAddress",
          "type": "address"
        }
      ],
      "payable": false,
      "stateMutability": "view",
      "type": "function"
    },
    {
      "inputs": [
        {
          "name": "loggerAddress",
          "type": "address"
        },
        {
          "name": "_district",
          "type": "bytes2"
        },
        {
          "name": "_document",
          "type": "uint256"
        },
        {
          "name": "_landParcel",
          "type": "uint256"
        },
        {
          "name": "_subaltern",
          "type": "uint256"
        },
        {
          "name": "_ownerAddress",
          "type": "address"
        }
      ],
      "payable": false,
      "stateMutability": "nonpayable",
      "type": "constructor"
    },
    {
      "anonymous": false,
      "inputs": [
        {
          "indexed": false,
          "name": "_owner",
          "type": "address"
        },
        {
          "indexed": false,
          "name": "_landParcel",
          "type": "uint256"
        }
      ],
      "name": "Add",
      "type": "event"
    },
    {
      "anonymous": false,
      "inputs": [
        {
          "indexed": true,
          "name": "_from",
          "type": "address"
        },
        {
          "indexed": true,
          "name": "_to",
          "type": "address"
        },
        {
          "indexed": false,
          "name": "_landParcel",
          "type": "uint256"
        }
      ],
      "name": "Transfer",
      "type": "event"
    },
    {
      "constant": false,
      "inputs": [
        {
          "name": "_landBuyer",
          "type": "address"
        },
        {
          "name": "_landParcel",
          "type": "uint256"
        },
        {
          "name": "_subaltern",
          "type": "uint256"
        }
      ],
      "name": "transferLand",
      "outputs": [
        {
          "name": "",
          "type": "bool"
        }
      ],
      "payable": false,
      "stateMutability": "nonpayable",
      "type": "function"
    },
    {
      "constant": true,
      "inputs": [],
      "name": "getLand",
      "outputs": [
        {
          "name": "",
          "type": "bytes2"
        },
        {
          "name": "",
          "type": "uint256"
        },
        {
          "name": "",
          "type": "uint256"
        },
        {
          "name": "",
          "type": "uint256"
        },
        {
          "name": "",
          "type": "address"
        }
      ],
      "payable": false,
      "stateMutability": "view",
      "type": "function"
    },
    {
      "constant": true,
      "inputs": [
        {
          "name": "_index",
          "type": "uint256"
        }
      ],
      "name": "getHistory",
      "outputs": [
        {
          "name": "",
          "type": "address"
        },
        {
          "name": "",
          "type": "uint256"
        }
      ],
      "payable": false,
      "stateMutability": "view",
      "type": "function"
    },
    {
      "constant": true,
      "inputs": [],
      "name": "getNoOfEntries",
      "outputs": [
        {
          "name": "",
          "type": "uint256"
        }
      ],
      "payable": false,
      "stateMutability": "view",
      "type": "function"
    }
  ],
  "bytecode": "0x608060405234801561001057600080fd5b5060405160c080610de283398101806040528101908080519060200190929190805190602001909291908051906020019092919080519060200190929190805190602001909291908051906020019092919050505061006d610480565b33600160006101000a81548173ffffffffffffffffffffffffffffffffffffffff021916908373ffffffffffffffffffffffffffffffffffffffff160217905550866000806101000a81548173ffffffffffffffffffffffffffffffffffffffff021916908373ffffffffffffffffffffffffffffffffffffffff16021790555060a060405190810160405280877dffffffffffffffffffffffffffffffffffffffffffffffffffffffffffff191681526020018681526020018581526020018481526020018373ffffffffffffffffffffffffffffffffffffffff16815250600360008201518160000160006101000a81548161ffff02191690837e010000000000000000000000000000000000000000000000000000000000009004021790555060208201518160010155604082015181600201556060820151816003015560808201518160040160006101000a81548173ffffffffffffffffffffffffffffffffffffffff021916908373ffffffffffffffffffffffffffffffffffffffff16021790555090505060408051908101604052808373ffffffffffffffffffffffffffffffffffffffff1681526020014281525090506002819080600181540180825580915050906001820390600052602060002090600202016000909192909190915060008201518160000160006101000a81548173ffffffffffffffffffffffffffffffffffffffff021916908373ffffffffffffffffffffffffffffffffffffffff160217905550602082015181600101555050506000809054906101000a900473ffffffffffffffffffffffffffffffffffffffff1673ffffffffffffffffffffffffffffffffffffffff16636d9ea99630600360000160009054906101000a90047e01000000000000000000000000000000000000000000000000000000000000026003600101546003600201546003800154600360040160009054906101000a900473ffffffffffffffffffffffffffffffffffffffff166040518763ffffffff167c0100000000000000000000000000000000000000000000000000000000028152600401808773ffffffffffffffffffffffffffffffffffffffff1673ffffffffffffffffffffffffffffffffffffffff168152602001867dffffffffffffffffffffffffffffffffffffffffffffffffffffffffffff19167dffffffffffffffffffffffffffffffffffffffffffffffffffffffffffff191681526020018581526020018481526020018381526020018273ffffffffffffffffffffffffffffffffffffffff1673ffffffffffffffffffffffffffffffffffffffff1681526020019650505050505050600060405180830381600087803b15801561045c57600080fd5b505af1158015610470573d6000803e3d6000fd5b50505050505050505050506104b0565b6040805190810160405280600073ffffffffffffffffffffffffffffffffffffffff168152602001600081525090565b610923806104bf6000396000f300608060405260043610610083576000357c0100000000000000000000000000000000000000000000000000000000900463ffffffff16806332f9313c146100885780635690314c146100fc5780637da0a18f146101b15780638da5cb5b146101dc578063a447104214610233578063b9df7cb4146102a2578063c8691b2a14610357575b600080fd5b34801561009457600080fd5b506100b3600480360381019080803590602001909291905050506103cb565b604051808373ffffffffffffffffffffffffffffffffffffffff1673ffffffffffffffffffffffffffffffffffffffff1681526020018281526020019250505060405180910390f35b34801561010857600080fd5b5061011161041e565b60405180867dffffffffffffffffffffffffffffffffffffffffffffffffffffffffffff19167dffffffffffffffffffffffffffffffffffffffffffffffffffffffffffff191681526020018581526020018481526020018381526020018273ffffffffffffffffffffffffffffffffffffffff1673ffffffffffffffffffffffffffffffffffffffff1681526020019550505050505060405180910390f35b3480156101bd57600080fd5b506101c661049f565b6040518082815260200191505060405180910390f35b3480156101e857600080fd5b506101f16104ac565b604051808273ffffffffffffffffffffffffffffffffffffffff1673ffffffffffffffffffffffffffffffffffffffff16815260200191505060405180910390f35b34801561023f57600080fd5b50610288600480360381019080803573ffffffffffffffffffffffffffffffffffffffff16906020019092919080359060200190929190803590602001909291905050506104d2565b604051808215151515815260200191505060405180910390f35b3480156102ae57600080fd5b506102b76107ea565b60405180867dffffffffffffffffffffffffffffffffffffffffffffffffffffffffffff19167dffffffffffffffffffffffffffffffffffffffffffffffffffffffffffff191681526020018581526020018481526020018381526020018273ffffffffffffffffffffffffffffffffffffffff1673ffffffffffffffffffffffffffffffffffffffff1681526020019550505050505060405180910390f35b34801561036357600080fd5b5061038260048036038101908080359060200190929190505050610859565b604051808373ffffffffffffffffffffffffffffffffffffffff1673ffffffffffffffffffffffffffffffffffffffff1681526020018281526020019250505060405180910390f35b6002818154811015156103da57fe5b90600052602060002090600202016000915090508060000160009054906101000a900473ffffffffffffffffffffffffffffffffffffffff16908060010154905082565b6000806000806000600360000160009054906101000a90047e01000000000000000000000000000000000000000000000000000000000000026003600101546003600201546003800154600360040160009054906101000a900473ffffffffffffffffffffffffffffffffffffffff16945094509450945094509091929394565b6000600280549050905090565b600160009054906101000a900473ffffffffffffffffffffffffffffffffffffffff1681565b60006104dc6108c7565b600360040160009054906101000a900473ffffffffffffffffffffffffffffffffffffffff1673ffffffffffffffffffffffffffffffffffffffff163373ffffffffffffffffffffffffffffffffffffffff161415156105a4576040517f08c379a000000000000000000000000000000000000000000000000000000000815260040180806020018281038252601e8152602001807f54686973206c616e64206973206e6f74206f66207468652063616c6c6572000081525060200191505060405180910390fd5b836003600201541480156105bb5750826003800154145b156107dd5784600360040160006101000a81548173ffffffffffffffffffffffffffffffffffffffff021916908373ffffffffffffffffffffffffffffffffffffffff16021790555060408051908101604052808673ffffffffffffffffffffffffffffffffffffffff1681526020014281525090506002819080600181540180825580915050906001820390600052602060002090600202016000909192909190915060008201518160000160006101000a81548173ffffffffffffffffffffffffffffffffffffffff021916908373ffffffffffffffffffffffffffffffffffffffff160217905550602082015181600101555050506000809054906101000a900473ffffffffffffffffffffffffffffffffffffffff1673ffffffffffffffffffffffffffffffffffffffff1663d6614952306003600201546003800154896040518563ffffffff167c0100000000000000000000000000000000000000000000000000000000028152600401808573ffffffffffffffffffffffffffffffffffffffff1673ffffffffffffffffffffffffffffffffffffffff1681526020018481526020018381526020018273ffffffffffffffffffffffffffffffffffffffff1673ffffffffffffffffffffffffffffffffffffffff168152602001945050505050600060405180830381600087803b1580156107bc57600080fd5b505af11580156107d0573d6000803e3d6000fd5b50505050600191506107e2565b600091505b509392505050565b60038060000160009054906101000a90047e0100000000000000000000000000000000000000000000000000000000000002908060010154908060020154908060030154908060040160009054906101000a900473ffffffffffffffffffffffffffffffffffffffff16905085565b60008060028381548110151561086b57fe5b906000526020600020906002020160000160009054906101000a900473ffffffffffffffffffffffffffffffffffffffff166002848154811015156108ac57fe5b90600052602060002090600202016001015491509150915091565b6040805190810160405280600073ffffffffffffffffffffffffffffffffffffffff1681526020016000815250905600a165627a7a72305820ed1b06da6d7b45b288a1008836b37f5b12b7ab8d1ea31781d042e56a0868cddc0029",
  "source": "pragma solidity ^0.4.23;\n\n\nimport './Logger.sol';\n\ncontract Unity {\n    Logger logger;\n\n    // Define the structure of a land.\n    struct Land {\n        bytes2 district;\n        uint document;\n        uint landParcel;\n        uint subaltern;\n        address ownerAddress;\n    }\n\n    struct EntryHistory {\n        address ownerAddress;\n        uint timestamp;\n    }\n\n    address public owner;   // address of who creates the contract\n\n    // One landId can have multiple passed owners.\n    EntryHistory[] public __history;\n\n    Land public _land;\n\n\n    // Land addition event, use this to synchronize with the backend.\n    event Add(address _owner, uint _landParcel);\n\n\n    // When the contract is deployed by truffle the account that deploys the contract became the owner,\n    // in our case it will be the first account generated by ganache-cli (accounts[0]).\n    constructor (address loggerAddress, bytes2 _district, uint _document, uint _landParcel, uint _subaltern, address _ownerAddress) public{\n        owner = msg.sender;\n        logger = Logger(loggerAddress);\n\n        _land = Land({\n            district : _district,\n            document : _document,\n            landParcel : _landParcel,\n            subaltern : _subaltern,\n            ownerAddress : _ownerAddress\n            });\n\n        // Add history entry for this new land.\n        EntryHistory memory myEntry = EntryHistory({\n            ownerAddress : _ownerAddress,\n            timestamp : block.timestamp\n            });\n        __history.push(myEntry);\n\n        //        emit Add(_ownerAddress, _landParcel);\n        //        _contractAddress, _district, _document, _landParcel, _subaltern, _ownerAddress\n        logger.emitNewDeployEvent(address(this), _land.district, _land.document, _land.landParcel, _land.subaltern, _land.ownerAddress);\n    }\n\n    // Land transfer event, also use this tho synchronize with the backend.\n    event Transfer(address indexed _from, address indexed _to, uint _landParcel);\n\n    // Modifier to check if the address of the calling (from field in the transaction obj) is the owner.\n    modifier isOwner(){\n        require(msg.sender == _land.ownerAddress, \"This land is not of the caller\");\n        _;\n    }\n    \n    // Caller (owner/anyone) can transfer a land to the provided buyer if the caller is the owner of the requested land.\n    function transferLand(address _landBuyer, uint _landParcel, uint _subaltern) isOwner public returns (bool) {\n        // If so, then the land ID is in owner's collection.\n        if (_land.landParcel == _landParcel && _land.subaltern == _subaltern) {\n            _land.ownerAddress = _landBuyer;\n\n            // Insert movement in the history mapping.\n            EntryHistory memory myEntry = EntryHistory({\n                ownerAddress : _landBuyer,\n                timestamp : block.timestamp\n                });\n            __history.push(myEntry);\n\n            // Inform the backend or who is subscribed to the event.\n            //            emit Transfer(msg.sender, _landBuyer, _landParcel);\n            logger.emitTransfer(address(this), _land.landParcel, _land.subaltern, _landBuyer);\n            return true;\n        }\n        return false;\n    }\n\n\n    // Get land details of an account.\n    function getLand() public view returns (bytes2, uint, uint, uint, address) {\n        return (\n        _land.district,\n        _land.document,\n        _land.landParcel,\n        _land.subaltern,\n        _land.ownerAddress);\n\n    }\n\n    // Return all the movements for a specific land.\n    function getHistory(uint _index) public view returns (address, uint) {\n        return (\n        __history[_index].ownerAddress,\n        __history[_index].timestamp\n        );\n    }\n\n    // Return number of movements for a specific land.\n    function getNoOfEntries() public view returns (uint){\n        return __history.length;\n    }\n}",
  "sourcePath": "/home/luigi-cer1/Documenti/ThesisCode/ethereum/contracts/Unity.sol",
  "compiler": {
    "name": "solc",
    "version": "0.4.24+commit.e67f0147.Emscripten.clang"
  },
  "schemaVersion": "2.0.1",
  "updatedAt": "2018-09-12T09:46:37.477Z"
}