{
  "contractName": "Unity",
  "abi": [
    {
      "constant": true,
      "inputs": [],
      "name": "_ipfs",
      "outputs": [
        {
          "name": "hash",
          "type": "bytes32"
        },
        {
          "name": "hash_function",
          "type": "uint8"
        },
        {
          "name": "size",
          "type": "uint8"
        }
      ],
      "payable": false,
      "stateMutability": "view",
      "type": "function"
    },
    {
      "constant": true,
      "inputs": [
        {
          "name": "",
          "type": "uint256"
        }
      ],
      "name": "__history",
      "outputs": [
        {
          "name": "ownerAddress",
          "type": "address"
        },
        {
          "name": "timestamp",
          "type": "uint256"
        }
      ],
      "payable": false,
      "stateMutability": "view",
      "type": "function"
    },
    {
      "constant": true,
      "inputs": [],
      "name": "owner",
      "outputs": [
        {
          "name": "",
          "type": "address"
        }
      ],
      "payable": false,
      "stateMutability": "view",
      "type": "function"
    },
    {
      "constant": true,
      "inputs": [],
      "name": "_land",
      "outputs": [
        {
          "name": "district",
          "type": "bytes2"
        },
        {
          "name": "document",
          "type": "uint256"
        },
        {
          "name": "landParcel",
          "type": "uint256"
        },
        {
          "name": "subaltern",
          "type": "uint256"
        },
        {
          "name": "ownerAddress",
          "type": "address"
        }
      ],
      "payable": false,
      "stateMutability": "view",
      "type": "function"
    },
    {
      "inputs": [
        {
          "name": "loggerAddress",
          "type": "address"
        },
        {
          "name": "_district",
          "type": "bytes2"
        },
        {
          "name": "_document",
          "type": "uint256"
        },
        {
          "name": "_landParcel",
          "type": "uint256"
        },
        {
          "name": "_subaltern",
          "type": "uint256"
        },
        {
          "name": "_ownerAddress",
          "type": "address"
        }
      ],
      "payable": false,
      "stateMutability": "nonpayable",
      "type": "constructor"
    },
    {
      "anonymous": false,
      "inputs": [
        {
          "indexed": true,
          "name": "_from",
          "type": "address"
        },
        {
          "indexed": true,
          "name": "_to",
          "type": "address"
        },
        {
          "indexed": false,
          "name": "_landParcel",
          "type": "uint256"
        }
      ],
      "name": "Transfer",
      "type": "event"
    },
    {
      "constant": false,
      "inputs": [
        {
          "name": "_hash",
          "type": "bytes32"
        },
        {
          "name": "_hash_function",
          "type": "uint8"
        },
        {
          "name": "_size",
          "type": "uint8"
        }
      ],
      "name": "setIPFS",
      "outputs": [],
      "payable": false,
      "stateMutability": "nonpayable",
      "type": "function"
    },
    {
      "constant": true,
      "inputs": [],
      "name": "getIPFS",
      "outputs": [
        {
          "name": "",
          "type": "bytes32"
        },
        {
          "name": "",
          "type": "uint8"
        },
        {
          "name": "",
          "type": "uint8"
        }
      ],
      "payable": false,
      "stateMutability": "view",
      "type": "function"
    },
    {
      "constant": false,
      "inputs": [
        {
          "name": "_landBuyer",
          "type": "address"
        },
        {
          "name": "_landParcel",
          "type": "uint256"
        },
        {
          "name": "_subaltern",
          "type": "uint256"
        }
      ],
      "name": "transferLand",
      "outputs": [
        {
          "name": "",
          "type": "bool"
        }
      ],
      "payable": false,
      "stateMutability": "nonpayable",
      "type": "function"
    },
    {
      "constant": true,
      "inputs": [],
      "name": "getLand",
      "outputs": [
        {
          "name": "",
          "type": "bytes2"
        },
        {
          "name": "",
          "type": "uint256"
        },
        {
          "name": "",
          "type": "uint256"
        },
        {
          "name": "",
          "type": "uint256"
        },
        {
          "name": "",
          "type": "address"
        }
      ],
      "payable": false,
      "stateMutability": "view",
      "type": "function"
    },
    {
      "constant": true,
      "inputs": [
        {
          "name": "_index",
          "type": "uint256"
        }
      ],
      "name": "getHistory",
      "outputs": [
        {
          "name": "",
          "type": "address"
        },
        {
          "name": "",
          "type": "uint256"
        }
      ],
      "payable": false,
      "stateMutability": "view",
      "type": "function"
    },
    {
      "constant": true,
      "inputs": [],
      "name": "getNoOfEntries",
      "outputs": [
        {
          "name": "",
          "type": "uint256"
        }
      ],
      "payable": false,
      "stateMutability": "view",
      "type": "function"
    }
  ],
  "bytecode": "0x608060405234801561001057600080fd5b5060405160c08061121f83398101806040528101908080519060200190929190805190602001909291908051906020019092919080519060200190929190805190602001909291908051906020019092919050505061006d6104c2565b33600160006101000a81548173ffffffffffffffffffffffffffffffffffffffff021916908373ffffffffffffffffffffffffffffffffffffffff16021790555081600a60006101000a81548173ffffffffffffffffffffffffffffffffffffffff021916908373ffffffffffffffffffffffffffffffffffffffff160217905550866000806101000a81548173ffffffffffffffffffffffffffffffffffffffff021916908373ffffffffffffffffffffffffffffffffffffffff16021790555060a060405190810160405280877dffffffffffffffffffffffffffffffffffffffffffffffffffffffffffff191681526020018681526020018581526020018481526020018373ffffffffffffffffffffffffffffffffffffffff16815250600560008201518160000160006101000a81548161ffff02191690837e010000000000000000000000000000000000000000000000000000000000009004021790555060208201518160010155604082015181600201556060820151816003015560808201518160040160006101000a81548173ffffffffffffffffffffffffffffffffffffffff021916908373ffffffffffffffffffffffffffffffffffffffff16021790555090505060408051908101604052808373ffffffffffffffffffffffffffffffffffffffff1681526020014281525090506004819080600181540180825580915050906001820390600052602060002090600202016000909192909190915060008201518160000160006101000a81548173ffffffffffffffffffffffffffffffffffffffff021916908373ffffffffffffffffffffffffffffffffffffffff160217905550602082015181600101555050506000809054906101000a900473ffffffffffffffffffffffffffffffffffffffff1673ffffffffffffffffffffffffffffffffffffffff16636d9ea99630600560000160009054906101000a90047e0100000000000000000000000000000000000000000000000000000000000002600560010154600560020154600560030154600560040160009054906101000a900473ffffffffffffffffffffffffffffffffffffffff166040518763ffffffff167c0100000000000000000000000000000000000000000000000000000000028152600401808773ffffffffffffffffffffffffffffffffffffffff1673ffffffffffffffffffffffffffffffffffffffff168152602001867dffffffffffffffffffffffffffffffffffffffffffffffffffffffffffff19167dffffffffffffffffffffffffffffffffffffffffffffffffffffffffffff191681526020018581526020018481526020018381526020018273ffffffffffffffffffffffffffffffffffffffff1673ffffffffffffffffffffffffffffffffffffffff1681526020019650505050505050600060405180830381600087803b15801561049e57600080fd5b505af11580156104b2573d6000803e3d6000fd5b50505050505050505050506104f2565b6040805190810160405280600073ffffffffffffffffffffffffffffffffffffffff168152602001600081525090565b610d1e806105016000396000f3006080604052600436106100a4576000357c0100000000000000000000000000000000000000000000000000000000900463ffffffff1680630efba1fc146100a957806332f9313c146100f65780634efe2d1e1461016a5780635690314c146101b757806361f084831461026c5780637da0a18f146102b75780638da5cb5b146102e2578063a447104214610339578063b9df7cb4146103a8578063c8691b2a1461045d575b600080fd5b3480156100b557600080fd5b506100be6104d1565b6040518084600019166000191681526020018360ff1660ff1681526020018260ff1660ff168152602001935050505060405180910390f35b34801561010257600080fd5b5061012160048036038101908080359060200190929190505050610503565b604051808373ffffffffffffffffffffffffffffffffffffffff1673ffffffffffffffffffffffffffffffffffffffff1681526020018281526020019250505060405180910390f35b34801561017657600080fd5b5061017f610556565b6040518084600019166000191681526020018360ff1660ff1681526020018260ff1660ff168152602001935050505060405180910390f35b3480156101c357600080fd5b506101cc610592565b60405180867dffffffffffffffffffffffffffffffffffffffffffffffffffffffffffff19167dffffffffffffffffffffffffffffffffffffffffffffffffffffffffffff191681526020018581526020018481526020018381526020018273ffffffffffffffffffffffffffffffffffffffff1673ffffffffffffffffffffffffffffffffffffffff1681526020019550505050505060405180910390f35b34801561027857600080fd5b506102b56004803603810190808035600019169060200190929190803560ff169060200190929190803560ff169060200190929190505050610614565b005b3480156102c357600080fd5b506102cc6107dc565b6040518082815260200191505060405180910390f35b3480156102ee57600080fd5b506102f76107e9565b604051808273ffffffffffffffffffffffffffffffffffffffff1673ffffffffffffffffffffffffffffffffffffffff16815260200191505060405180910390f35b34801561034557600080fd5b5061038e600480360381019080803573ffffffffffffffffffffffffffffffffffffffff169060200190929190803590602001909291908035906020019092919050505061080f565b604051808215151515815260200191505060405180910390f35b3480156103b457600080fd5b506103bd610be5565b60405180867dffffffffffffffffffffffffffffffffffffffffffffffffffffffffffff19167dffffffffffffffffffffffffffffffffffffffffffffffffffffffffffff191681526020018581526020018481526020018381526020018273ffffffffffffffffffffffffffffffffffffffff1673ffffffffffffffffffffffffffffffffffffffff1681526020019550505050505060405180910390f35b34801561046957600080fd5b5061048860048036038101908080359060200190929190505050610c54565b604051808373ffffffffffffffffffffffffffffffffffffffff1673ffffffffffffffffffffffffffffffffffffffff1681526020018281526020019250505060405180910390f35b60028060000154908060010160009054906101000a900460ff16908060010160019054906101000a900460ff16905083565b60048181548110151561051257fe5b90600052602060002090600202016000915090508060000160009054906101000a900473ffffffffffffffffffffffffffffffffffffffff16908060010154905082565b6000806000600260000154600260010160009054906101000a900460ff16600260010160019054906101000a900460ff16925092509250909192565b6000806000806000600560000160009054906101000a90047e0100000000000000000000000000000000000000000000000000000000000002600560010154600560020154600560030154600560040160009054906101000a900473ffffffffffffffffffffffffffffffffffffffff16945094509450945094509091929394565b600560040160009054906101000a900473ffffffffffffffffffffffffffffffffffffffff1673ffffffffffffffffffffffffffffffffffffffff163373ffffffffffffffffffffffffffffffffffffffff1614806106c05750600a60009054906101000a900473ffffffffffffffffffffffffffffffffffffffff1673ffffffffffffffffffffffffffffffffffffffff163373ffffffffffffffffffffffffffffffffffffffff16145b151561075a576040517f08c379a000000000000000000000000000000000000000000000000000000000815260040180806020018281038252602e8152602001807f54686973206c616e64206973206e6f74206f66207468652063616c6c6572206f81526020017f7220746865206578206f776e657200000000000000000000000000000000000081525060400191505060405180910390fd5b606060405190810160405280846000191681526020018360ff1681526020018260ff1681525060026000820151816000019060001916905560208201518160010160006101000a81548160ff021916908360ff16021790555060408201518160010160016101000a81548160ff021916908360ff160217905550905050505050565b6000600480549050905090565b600160009054906101000a900473ffffffffffffffffffffffffffffffffffffffff1681565b6000610819610cc2565b600560040160009054906101000a900473ffffffffffffffffffffffffffffffffffffffff1673ffffffffffffffffffffffffffffffffffffffff163373ffffffffffffffffffffffffffffffffffffffff161415156108e1576040517f08c379a000000000000000000000000000000000000000000000000000000000815260040180806020018281038252601e8152602001807f54686973206c616e64206973206e6f74206f66207468652063616c6c6572000081525060200191505060405180910390fd5b600560040160009054906101000a900473ffffffffffffffffffffffffffffffffffffffff16600a60006101000a81548173ffffffffffffffffffffffffffffffffffffffff021916908373ffffffffffffffffffffffffffffffffffffffff1602179055508360056002015414801561095f575082600560030154145b15610bd85784600560040160006101000a81548173ffffffffffffffffffffffffffffffffffffffff021916908373ffffffffffffffffffffffffffffffffffffffff16021790555060408051908101604052808673ffffffffffffffffffffffffffffffffffffffff1681526020014281525090506004819080600181540180825580915050906001820390600052602060002090600202016000909192909190915060008201518160000160006101000a81548173ffffffffffffffffffffffffffffffffffffffff021916908373ffffffffffffffffffffffffffffffffffffffff160217905550602082015181600101555050506000809054906101000a900473ffffffffffffffffffffffffffffffffffffffff1673ffffffffffffffffffffffffffffffffffffffff1663ba3fdb1b3060056002015460056003015489600a60009054906101000a900473ffffffffffffffffffffffffffffffffffffffff166040518663ffffffff167c0100000000000000000000000000000000000000000000000000000000028152600401808673ffffffffffffffffffffffffffffffffffffffff1673ffffffffffffffffffffffffffffffffffffffff1681526020018581526020018481526020018373ffffffffffffffffffffffffffffffffffffffff1673ffffffffffffffffffffffffffffffffffffffff1681526020018273ffffffffffffffffffffffffffffffffffffffff1673ffffffffffffffffffffffffffffffffffffffff16815260200195505050505050600060405180830381600087803b158015610bb757600080fd5b505af1158015610bcb573d6000803e3d6000fd5b5050505060019150610bdd565b600091505b509392505050565b60058060000160009054906101000a90047e0100000000000000000000000000000000000000000000000000000000000002908060010154908060020154908060030154908060040160009054906101000a900473ffffffffffffffffffffffffffffffffffffffff16905085565b600080600483815481101515610c6657fe5b906000526020600020906002020160000160009054906101000a900473ffffffffffffffffffffffffffffffffffffffff16600484815481101515610ca757fe5b90600052602060002090600202016001015491509150915091565b6040805190810160405280600073ffffffffffffffffffffffffffffffffffffffff1681526020016000815250905600a165627a7a7230582016e1d96aa58e173ed2c832bf1fa27a8877337b1e1e60a68e719ca88fd5c8974b0029",
  "source": "pragma solidity ^0.4.23;\n\n\nimport './Logger.sol';\n\ncontract Unity {\n    Logger logger;\n\n    // Define the structure of a land.\n    struct Land {\n        bytes2 district;\n        uint document;\n        uint landParcel;\n        uint subaltern;\n        address ownerAddress;\n    }\n\n    // Define the strcuture of an history entry.\n    struct EntryHistory {\n        address ownerAddress;\n        uint timestamp;\n    }\n\n    // Define the structure of the IPFS hash.\n    struct Multihash {\n        bytes32 hash;\n        uint8 hash_function;\n        uint8 size;\n    }\n\n    // address of who creates the contract\n    address public owner;\n\n    // IPFS hash field.\n    Multihash public _ipfs;\n\n    // One landId can have multiple passed owners.\n    EntryHistory[] public __history;\n\n    Land public _land;\n\n    address exOwner;\n\n    // When the contract is deployed by truffle the account that deploys the contract became the owner,\n    // in our case it will be the first account generated by ganache-cli (accounts[0]).\n    constructor (address loggerAddress, bytes2 _district, uint _document, uint _landParcel, uint _subaltern, address _ownerAddress) public{\n        owner = msg.sender;\n\n        exOwner = _ownerAddress;\n\n        logger = Logger(loggerAddress);\n\n        _land = Land({\n            district : _district,\n            document : _document,\n            landParcel : _landParcel,\n            subaltern : _subaltern,\n            ownerAddress : _ownerAddress\n            });\n\n        // Add history entry for this new land.\n        EntryHistory memory myEntry = EntryHistory({\n            ownerAddress : _ownerAddress,\n            timestamp : block.timestamp\n            });\n        __history.push(myEntry);\n\n        //        emit Add(_ownerAddress, _landParcel);\n        //        _contractAddress, _district, _document, _landParcel, _subaltern, _ownerAddress\n        logger.emitNewDeployEvent(address(this), _land.district, _land.document, _land.landParcel, _land.subaltern, _land.ownerAddress);\n    }\n\n    // Land transfer event, also use this tho synchronize with the backend.\n    event Transfer(address indexed _from, address indexed _to, uint _landParcel);\n\n    // Modifier to check if the address of the calling (from field in the transaction obj) is the owner.\n    modifier isOwner(){\n        require(msg.sender == _land.ownerAddress, \"This land is not of the caller\");\n        _;\n    }\n\n    modifier isOwnerOrEx(){\n        require(msg.sender == _land.ownerAddress || msg.sender == exOwner,\n            \"This land is not of the caller or the ex owner\");\n        _;\n    }\n\n\n    function setIPFS(bytes32 _hash, uint8 _hash_function, uint8 _size) public isOwnerOrEx {\n        _ipfs = Multihash({\n            hash : _hash,\n            hash_function : _hash_function,\n            size : _size\n            });\n    }\n\n    function getIPFS() public view returns (bytes32, uint8, uint8){\n        return (_ipfs.hash, _ipfs.hash_function, _ipfs.size);\n    }\n\n    // Caller (owner/anyone) can transfer a land to the provided buyer if the caller is the owner of the requested land.\n    function transferLand(address _landBuyer, uint _landParcel, uint _subaltern) isOwner public returns (bool) {\n        // If so, then the land ID is in owner's collection.\n\n        // exOwner is used in order to set the IPFS when the land is transferred.\n        exOwner = _land.ownerAddress;\n        if (_land.landParcel == _landParcel && _land.subaltern == _subaltern) {\n            _land.ownerAddress = _landBuyer;\n\n            // Insert movement in the history mapping.\n            EntryHistory memory myEntry = EntryHistory({\n                ownerAddress : _landBuyer,\n                timestamp : block.timestamp\n                });\n            __history.push(myEntry);\n\n            // Inform the backend or who is subscribed to the event.\n            //            emit Transfer(msg.sender, _landBuyer, _landParcel);\n            logger.emitTransfer(address(this), _land.landParcel, _land.subaltern, _landBuyer, exOwner);\n            return true;\n        }\n        return false;\n    }\n\n\n    // Get land details of an account.\n    function getLand() public view returns (bytes2, uint, uint, uint, address) {\n        return (\n        _land.district,\n        _land.document,\n        _land.landParcel,\n        _land.subaltern,\n        _land.ownerAddress);\n\n    }\n\n    // Return all the movements for a specific land.\n    function getHistory(uint _index) public view returns (address, uint) {\n        return (\n        __history[_index].ownerAddress,\n        __history[_index].timestamp\n        );\n    }\n\n    // Return number of movements for a specific land.\n    function getNoOfEntries() public view returns (uint){\n        return __history.length;\n    }\n}",
  "sourcePath": "/home/luigi-cer1/Documenti/ThesisCode/ethereum/contracts/Unity.sol",
  "compiler": {
    "name": "solc",
    "version": "0.4.24+commit.e67f0147.Emscripten.clang"
  },
  "schemaVersion": "2.0.1",
  "updatedAt": "2018-09-14T09:08:04.907Z"
}