{
  "contractName": "Unity",
  "abi": [
    {
      "constant": true,
      "inputs": [
        {
          "name": "",
          "type": "address"
        },
        {
          "name": "",
          "type": "uint256"
        }
      ],
      "name": "__ownedLands",
      "outputs": [
        {
          "name": "district",
          "type": "bytes2"
        },
        {
          "name": "document",
          "type": "uint256"
        },
        {
          "name": "landParcel",
          "type": "uint256"
        },
        {
          "name": "subaltern",
          "type": "uint256"
        },
        {
          "name": "ownerAddress",
          "type": "address"
        },
        {
          "name": "landID",
          "type": "uint256"
        }
      ],
      "payable": false,
      "stateMutability": "view",
      "type": "function"
    },
    {
      "constant": true,
      "inputs": [
        {
          "name": "",
          "type": "uint256"
        },
        {
          "name": "",
          "type": "uint256"
        }
      ],
      "name": "__history",
      "outputs": [
        {
          "name": "ownerAddress",
          "type": "address"
        },
        {
          "name": "timestamp",
          "type": "uint256"
        }
      ],
      "payable": false,
      "stateMutability": "view",
      "type": "function"
    },
    {
      "constant": true,
      "inputs": [],
      "name": "totalLandsCounter",
      "outputs": [
        {
          "name": "",
          "type": "uint256"
        }
      ],
      "payable": false,
      "stateMutability": "view",
      "type": "function"
    },
    {
      "constant": true,
      "inputs": [],
      "name": "owner",
      "outputs": [
        {
          "name": "",
          "type": "address"
        }
      ],
      "payable": false,
      "stateMutability": "view",
      "type": "function"
    },
    {
      "inputs": [],
      "payable": false,
      "stateMutability": "nonpayable",
      "type": "constructor"
    },
    {
      "anonymous": false,
      "inputs": [
        {
          "indexed": false,
          "name": "_owner",
          "type": "address"
        },
        {
          "indexed": false,
          "name": "_landID",
          "type": "uint256"
        }
      ],
      "name": "Add",
      "type": "event"
    },
    {
      "anonymous": false,
      "inputs": [
        {
          "indexed": true,
          "name": "_from",
          "type": "address"
        },
        {
          "indexed": true,
          "name": "_to",
          "type": "address"
        },
        {
          "indexed": false,
          "name": "_landID",
          "type": "uint256"
        }
      ],
      "name": "Transfer",
      "type": "event"
    },
    {
      "constant": false,
      "inputs": [
        {
          "name": "_district",
          "type": "bytes2"
        },
        {
          "name": "_document",
          "type": "uint256"
        },
        {
          "name": "_landParcel",
          "type": "uint256"
        },
        {
          "name": "_subaltern",
          "type": "uint256"
        },
        {
          "name": "_ownerAddress",
          "type": "address"
        }
      ],
      "name": "addLand",
      "outputs": [
        {
          "name": "",
          "type": "address"
        }
      ],
      "payable": false,
      "stateMutability": "nonpayable",
      "type": "function"
    },
    {
      "constant": false,
      "inputs": [
        {
          "name": "_landBuyer",
          "type": "address"
        },
        {
          "name": "_landParcel",
          "type": "uint256"
        }
      ],
      "name": "transferLand",
      "outputs": [
        {
          "name": "",
          "type": "bool"
        }
      ],
      "payable": false,
      "stateMutability": "nonpayable",
      "type": "function"
    },
    {
      "constant": true,
      "inputs": [
        {
          "name": "_landHolder",
          "type": "address"
        },
        {
          "name": "_index",
          "type": "uint256"
        }
      ],
      "name": "getLand",
      "outputs": [
        {
          "name": "",
          "type": "bytes2"
        },
        {
          "name": "",
          "type": "uint256"
        },
        {
          "name": "",
          "type": "uint256"
        },
        {
          "name": "",
          "type": "uint256"
        },
        {
          "name": "",
          "type": "address"
        },
        {
          "name": "",
          "type": "uint256"
        }
      ],
      "payable": false,
      "stateMutability": "view",
      "type": "function"
    },
    {
      "constant": true,
      "inputs": [
        {
          "name": "_landHolder",
          "type": "address"
        }
      ],
      "name": "getNoOfLands",
      "outputs": [
        {
          "name": "",
          "type": "uint256"
        }
      ],
      "payable": false,
      "stateMutability": "view",
      "type": "function"
    },
    {
      "constant": true,
      "inputs": [
        {
          "name": "_landId",
          "type": "uint256"
        },
        {
          "name": "_index",
          "type": "uint256"
        }
      ],
      "name": "getHistory",
      "outputs": [
        {
          "name": "",
          "type": "address"
        },
        {
          "name": "",
          "type": "uint256"
        }
      ],
      "payable": false,
      "stateMutability": "view",
      "type": "function"
    },
    {
      "constant": true,
      "inputs": [
        {
          "name": "_landId",
          "type": "uint256"
        }
      ],
      "name": "getNoOfEntries",
      "outputs": [
        {
          "name": "",
          "type": "uint256"
        }
      ],
      "payable": false,
      "stateMutability": "view",
      "type": "function"
    }
  ],
  "bytecode": "0x608060405234801561001057600080fd5b50336000806101000a81548173ffffffffffffffffffffffffffffffffffffffff021916908373ffffffffffffffffffffffffffffffffffffffff1602179055506000600381905550611650806100686000396000f3006080604052600436106100a4576000357c0100000000000000000000000000000000000000000000000000000000900463ffffffff168063043db78d146100a957806305efe9c7146101755780632c3e36601461026757806365742555146102e55780636906679b146103d757806382f557ae146104555780638da5cb5b14610480578063b3f40d6a146104d7578063cd51b9391461053c578063db9d05511461057d575b600080fd5b3480156100b557600080fd5b5061013360048036038101908080357dffffffffffffffffffffffffffffffffffffffffffffffffffffffffffff19169060200190929190803590602001909291908035906020019092919080359060200190929190803573ffffffffffffffffffffffffffffffffffffffff1690602001909291905050506105d4565b604051808273ffffffffffffffffffffffffffffffffffffffff1673ffffffffffffffffffffffffffffffffffffffff16815260200191505060405180910390f35b34801561018157600080fd5b506101c0600480360381019080803573ffffffffffffffffffffffffffffffffffffffff16906020019092919080359060200190929190505050610acd565b60405180877dffffffffffffffffffffffffffffffffffffffffffffffffffffffffffff19167dffffffffffffffffffffffffffffffffffffffffffffffffffffffffffff191681526020018681526020018581526020018481526020018373ffffffffffffffffffffffffffffffffffffffff1673ffffffffffffffffffffffffffffffffffffffff168152602001828152602001965050505050505060405180910390f35b34801561027357600080fd5b5061029c6004803603810190808035906020019092919080359060200190929190505050610b70565b604051808373ffffffffffffffffffffffffffffffffffffffff1673ffffffffffffffffffffffffffffffffffffffff1681526020018281526020019250505060405180910390f35b3480156102f157600080fd5b50610330600480360381019080803573ffffffffffffffffffffffffffffffffffffffff16906020019092919080359060200190929190505050610bd0565b60405180877dffffffffffffffffffffffffffffffffffffffffffffffffffffffffffff19167dffffffffffffffffffffffffffffffffffffffffffffffffffffffffffff191681526020018681526020018581526020018481526020018373ffffffffffffffffffffffffffffffffffffffff1673ffffffffffffffffffffffffffffffffffffffff168152602001828152602001965050505050505060405180910390f35b3480156103e357600080fd5b5061040c6004803603810190808035906020019092919080359060200190929190505050610e6e565b604051808373ffffffffffffffffffffffffffffffffffffffff1673ffffffffffffffffffffffffffffffffffffffff1681526020018281526020019250505060405180910390f35b34801561046157600080fd5b5061046a610f00565b6040518082815260200191505060405180910390f35b34801561048c57600080fd5b50610495610f06565b604051808273ffffffffffffffffffffffffffffffffffffffff1673ffffffffffffffffffffffffffffffffffffffff16815260200191505060405180910390f35b3480156104e357600080fd5b50610522600480360381019080803573ffffffffffffffffffffffffffffffffffffffff16906020019092919080359060200190929190505050610f2b565b604051808215151515815260200191505060405180910390f35b34801561054857600080fd5b506105676004803603810190808035906020019092919050505061151a565b6040518082815260200191505060405180910390f35b34801561058957600080fd5b506105be600480360381019080803573ffffffffffffffffffffffffffffffffffffffff16906020019092919050505061153a565b6040518082815260200191505060405180910390f35b60006105de611586565b6105e66115f4565b6000809054906101000a900473ffffffffffffffffffffffffffffffffffffffff1673ffffffffffffffffffffffffffffffffffffffff163373ffffffffffffffffffffffffffffffffffffffff161415156106aa576040517f08c379a000000000000000000000000000000000000000000000000000000000815260040180806020018281038252600e8152602001807f4e6f7420617574686f72697a656400000000000000000000000000000000000081525060200191505060405180910390fd5b858460008060009150600090505b600260008473ffffffffffffffffffffffffffffffffffffffff1673ffffffffffffffffffffffffffffffffffffffff1681526020019081526020016000208054905081101561077d5783600260008573ffffffffffffffffffffffffffffffffffffffff1673ffffffffffffffffffffffffffffffffffffffff1681526020019081526020016000208281548110151561074f57fe5b9060005260206000209060060201600201541415610770576001915061077d565b80806001019150506106b8565b600015158215151415156107f9576040517f08c379a000000000000000000000000000000000000000000000000000000000815260040180806020018281038252600e8152602001807f4475706c6963617465206c616e6400000000000000000000000000000000000081525060200191505060405180910390fd5b60016003540160038190555060c0604051908101604052808d7dffffffffffffffffffffffffffffffffffffffffffffffffffffffffffff191681526020018c81526020018b81526020018a81526020018973ffffffffffffffffffffffffffffffffffffffff1681526020016003548152509550600260008973ffffffffffffffffffffffffffffffffffffffff1673ffffffffffffffffffffffffffffffffffffffff168152602001908152602001600020869080600181540180825580915050906001820390600052602060002090600602016000909192909190915060008201518160000160006101000a81548161ffff02191690837e010000000000000000000000000000000000000000000000000000000000009004021790555060208201518160010155604082015181600201556060820151816003015560808201518160040160006101000a81548173ffffffffffffffffffffffffffffffffffffffff021916908373ffffffffffffffffffffffffffffffffffffffff16021790555060a0820151816005015550505060408051908101604052808973ffffffffffffffffffffffffffffffffffffffff168152602001428152509450600160006003548152602001908152602001600020859080600181540180825580915050906001820390600052602060002090600202016000909192909190915060008201518160000160006101000a81548173ffffffffffffffffffffffffffffffffffffffff021916908373ffffffffffffffffffffffffffffffffffffffff160217905550602082015181600101555050507f2728c9d3205d667bbc0eefdfeda366261b4d021949630c047f3e5834b30611ab88600354604051808373ffffffffffffffffffffffffffffffffffffffff1673ffffffffffffffffffffffffffffffffffffffff1681526020018281526020019250505060405180910390a133965050505050505095945050505050565b600260205281600052604060002081815481101515610ae857fe5b9060005260206000209060060201600091509150508060000160009054906101000a90047e0100000000000000000000000000000000000000000000000000000000000002908060010154908060020154908060030154908060040160009054906101000a900473ffffffffffffffffffffffffffffffffffffffff16908060050154905086565b600160205281600052604060002081815481101515610b8b57fe5b9060005260206000209060020201600091509150508060000160009054906101000a900473ffffffffffffffffffffffffffffffffffffffff16908060010154905082565b600080600080600080600260008973ffffffffffffffffffffffffffffffffffffffff1673ffffffffffffffffffffffffffffffffffffffff16815260200190815260200160002087815481101515610c2557fe5b906000526020600020906006020160000160009054906101000a90047e0100000000000000000000000000000000000000000000000000000000000002600260008a73ffffffffffffffffffffffffffffffffffffffff1673ffffffffffffffffffffffffffffffffffffffff16815260200190815260200160002088815481101515610cae57fe5b906000526020600020906006020160010154600260008b73ffffffffffffffffffffffffffffffffffffffff1673ffffffffffffffffffffffffffffffffffffffff16815260200190815260200160002089815481101515610d0c57fe5b906000526020600020906006020160020154600260008c73ffffffffffffffffffffffffffffffffffffffff1673ffffffffffffffffffffffffffffffffffffffff1681526020019081526020016000208a815481101515610d6a57fe5b906000526020600020906006020160030154600260008d73ffffffffffffffffffffffffffffffffffffffff1673ffffffffffffffffffffffffffffffffffffffff1681526020019081526020016000208b815481101515610dc857fe5b906000526020600020906006020160040160009054906101000a900473ffffffffffffffffffffffffffffffffffffffff16600260008e73ffffffffffffffffffffffffffffffffffffffff1673ffffffffffffffffffffffffffffffffffffffff1681526020019081526020016000208c815481101515610e4657fe5b9060005260206000209060060201600501549550955095509550955095509295509295509295565b6000806001600085815260200190815260200160002083815481101515610e9157fe5b906000526020600020906002020160000160009054906101000a900473ffffffffffffffffffffffffffffffffffffffff166001600086815260200190815260200160002084815481101515610ee357fe5b906000526020600020906002020160010154915091509250929050565b60035481565b6000809054906101000a900473ffffffffffffffffffffffffffffffffffffffff1681565b600080610f36611586565b610f3e6115f4565b600092505b600260003373ffffffffffffffffffffffffffffffffffffffff1673ffffffffffffffffffffffffffffffffffffffff1681526020019081526020016000208054905083101561150c5784600260003373ffffffffffffffffffffffffffffffffffffffff1673ffffffffffffffffffffffffffffffffffffffff16815260200190815260200160002084815481101515610fda57fe5b90600052602060002090600602016002015414156114ff5760c060405190810160405280600260003373ffffffffffffffffffffffffffffffffffffffff1673ffffffffffffffffffffffffffffffffffffffff1681526020019081526020016000208581548110151561104a57fe5b906000526020600020906006020160000160009054906101000a90047e01000000000000000000000000000000000000000000000000000000000000027dffffffffffffffffffffffffffffffffffffffffffffffffffffffffffff19168152602001600260003373ffffffffffffffffffffffffffffffffffffffff1673ffffffffffffffffffffffffffffffffffffffff168152602001908152602001600020858154811015156110f957fe5b9060005260206000209060060201600101548152602001868152602001600260003373ffffffffffffffffffffffffffffffffffffffff1673ffffffffffffffffffffffffffffffffffffffff1681526020019081526020016000208581548110151561116257fe5b90600052602060002090600602016003015481526020018773ffffffffffffffffffffffffffffffffffffffff168152602001600260003373ffffffffffffffffffffffffffffffffffffffff1673ffffffffffffffffffffffffffffffffffffffff168152602001908152602001600020858154811015156111e157fe5b9060005260206000209060060201600501548152509150600260008773ffffffffffffffffffffffffffffffffffffffff1673ffffffffffffffffffffffffffffffffffffffff168152602001908152602001600020829080600181540180825580915050906001820390600052602060002090600602016000909192909190915060008201518160000160006101000a81548161ffff02191690837e010000000000000000000000000000000000000000000000000000000000009004021790555060208201518160010155604082015181600201556060820151816003015560808201518160040160006101000a81548173ffffffffffffffffffffffffffffffffffffffff021916908373ffffffffffffffffffffffffffffffffffffffff16021790555060a0820151816005015550505060408051908101604052808773ffffffffffffffffffffffffffffffffffffffff168152602001428152509050600160006003548152602001908152602001600020819080600181540180825580915050906001820390600052602060002090600202016000909192909190915060008201518160000160006101000a81548173ffffffffffffffffffffffffffffffffffffffff021916908373ffffffffffffffffffffffffffffffffffffffff16021790555060208201518160010155505050600260003373ffffffffffffffffffffffffffffffffffffffff1673ffffffffffffffffffffffffffffffffffffffff1681526020019081526020016000208381548110151561142457fe5b9060005260206000209060060201600080820160006101000a81549061ffff02191690556001820160009055600282016000905560038201600090556004820160006101000a81549073ffffffffffffffffffffffffffffffffffffffff0219169055600582016000905550508573ffffffffffffffffffffffffffffffffffffffff163373ffffffffffffffffffffffffffffffffffffffff167fddf252ad1be2c89b69c2b068fc378daa952ba7f163c4a11628f55a4df523b3ef876040518082815260200191505060405180910390a360019350611511565b8280600101935050610f43565b600093505b50505092915050565b600060016000838152602001908152602001600020805490509050919050565b6000600260008373ffffffffffffffffffffffffffffffffffffffff1673ffffffffffffffffffffffffffffffffffffffff168152602001908152602001600020805490509050919050565b60c06040519081016040528060007dffffffffffffffffffffffffffffffffffffffffffffffffffffffffffff19168152602001600081526020016000815260200160008152602001600073ffffffffffffffffffffffffffffffffffffffff168152602001600081525090565b6040805190810160405280600073ffffffffffffffffffffffffffffffffffffffff1681526020016000815250905600a165627a7a723058208bd16fcfdd28923d317bcbad28ff175b82bf8e088f31144a6d8e646cc356ab720029",
  "source": "pragma solidity ^0.4.23;\n\n\ncontract Unity {\n\n    // Define the structure of a land.\n    // TODO Add all relevant data.\n    struct Land {\n        bytes2 district;\n        uint document;\n        uint landParcel;\n        uint subaltern;\n        address ownerAddress;\n        uint landID;\n    }\n\n    struct EntryHistory {\n        address ownerAddress;\n        uint timestamp;\n    }\n\n    address public owner;   // address of who creates the contract\n\n    // One landId can have multiple passed owners.\n    mapping(uint => EntryHistory[]) public __history;\n\n    // One account can hold many lands\n    mapping(address => Land[]) public __ownedLands;\n\n    // Total no of lands via this contract at any time\n    uint public totalLandsCounter;\n\n    // When the contract is deployed by truffle the account that deploys the contract became the owner,\n    // in our case it will be the first account generated by ganache-cli (accounts[0]).\n    constructor () public{\n        owner = msg.sender;\n        totalLandsCounter = 0;\n    }\n\n    // Land addition event, use this to synchronize with the backend.\n    event Add(address _owner, uint _landID);\n\n    // Land transfer event, also use this tho synchronize with the backend.\n    event Transfer(address indexed _from, address indexed _to, uint _landID);\n\n    // Modifier to check if the address of the calling (from field in the transaction obj) is the owner.\n    modifier isOwner{\n        require(msg.sender == owner, \"Not authorized\");\n        _;\n    }\n\n    // Modifier used to check if current land is already present in the array associated to the user.\n    modifier isUnique (uint _landParcel, address _ownerAddress){\n        bool duplicate = false;\n        for (uint i = 0; i < (__ownedLands[_ownerAddress].length); i++) {\n            if (__ownedLands[_ownerAddress][i].landParcel == _landParcel) {\n                duplicate = true;\n                break;\n            }\n        }\n        require(duplicate == false, \"Duplicate land\");\n        _;\n    }\n\n    // Owner can add by using this function and by passing all the necessary data for creating a land obj.\n    function addLand(bytes2 _district, uint _document, uint _landParcel, uint _subaltern, address _ownerAddress) public isOwner isUnique(_landParcel, _ownerAddress) returns (address) {\n\n        totalLandsCounter = totalLandsCounter + 1;\n        Land memory myLand = Land({\n            district : _district,\n            document : _document,\n            landParcel : _landParcel,\n            subaltern : _subaltern,\n            ownerAddress : _ownerAddress,\n            landID : totalLandsCounter\n            });\n\n        __ownedLands[_ownerAddress].push(myLand);\n\n        // Add history entry for this new land.\n        EntryHistory memory myEntry = EntryHistory({\n            ownerAddress : _ownerAddress,\n            timestamp : block.timestamp\n            });\n        __history[totalLandsCounter].push(myEntry);\n\n        emit Add(_ownerAddress, totalLandsCounter);\n        return msg.sender;\n    }\n\n\n    // Caller (owner/anyone) can transfer a land to the provided buyer if the caller is the owner of the requested land.\n    function transferLand(address _landBuyer, uint _landParcel) public returns (bool) {\n        // Find out the particular land ID in owner's collection.\n        for (uint i = 0; i < (__ownedLands[msg.sender].length); i++) {\n            // If so, then the land ID is in owner's collection.\n            if (__ownedLands[msg.sender][i].landParcel == _landParcel) {\n                // Copy land in buyers's collection.\n                Land memory myLand = Land(\n                    {\n                    district : __ownedLands[msg.sender][i].district,\n                    document : __ownedLands[msg.sender][i].document,\n                    landParcel : _landParcel,\n                    subaltern : __ownedLands[msg.sender][i].subaltern,\n                    ownerAddress : _landBuyer,\n                    landID : __ownedLands[msg.sender][i].landID\n                    });\n                __ownedLands[_landBuyer].push(myLand);\n\n                // Insert movement in the history mapping.\n                EntryHistory memory myEntry = EntryHistory({\n                    ownerAddress : _landBuyer,\n                    timestamp : block.timestamp\n                    });\n                __history[totalLandsCounter].push(myEntry);\n\n                // Remove land from current ownerAddress.\n                delete __ownedLands[msg.sender][i];\n\n                // Inform the backend or who is subscribed to the event.\n                emit Transfer(msg.sender, _landBuyer, _landParcel);\n\n                return true;\n            }\n        }\n\n        return false;\n    }\n\n\n    // Get land details of an account.\n    function getLand(address _landHolder, uint _index) public view returns (bytes2, uint, uint, uint, address, uint) {\n        return (\n        __ownedLands[_landHolder][_index].district,\n        __ownedLands[_landHolder][_index].document,\n        __ownedLands[_landHolder][_index].landParcel,\n        __ownedLands[_landHolder][_index].subaltern,\n        __ownedLands[_landHolder][_index].ownerAddress,\n        __ownedLands[_landHolder][_index].landID);\n\n    }\n\n    // Get total number of lands for a given account.\n    function getNoOfLands(address _landHolder) public view returns (uint) {\n        return __ownedLands[_landHolder].length;\n    }\n\n    // Return all the movements for a specific land.\n    function getHistory(uint _landId, uint _index) public view returns (address, uint) {\n        return (\n        __history[_landId][_index].ownerAddress,\n        __history[_landId][_index].timestamp\n        );\n    }\n\n    // Return number of movements for a specific land.\n    function getNoOfEntries(uint _landId) public view returns (uint){\n        return __history[_landId].length;\n    }\n}",
  "sourcePath": "/home/luigi-cer1/Documenti/ThesisCode/ethereum/contracts/Unity.sol",
  "compiler": {
    "name": "solc",
    "version": "0.4.24+commit.e67f0147.Emscripten.clang"
  },
  "schemaVersion": "2.0.1",
  "updatedAt": "2018-09-10T08:28:57.001Z"
}